:020000040800F2
:1000000058A00020DD010008151A00080515000899
:1000100087190008AF0500087F41000800000000B4
:100020000000000000000000000000004501000882
:10003000F101000800000000890100084D3C0008A3
:10004000F7010008F7010008F7010008F7010008B0
:10005000F7010008F7010008F7010008F7010008A0
:10006000F7010008F7010008F7010008F701000890
:10007000F7010008F7010008F7010008F701000880
:10008000F7010008F7010008F7010008F701000870
:10009000F7010008F7010008F70100085D0E0008ED
:1000A000F7010008F7010008F7010008F701000850
:1000B000F7010008F7010008F7010008F701000840
:1000C000F7010008F7010008F7010008F701000830
:1000D000F7010008793E0008F7010008F701000861
:1000E000F7010008F7010008F7010008F701000810
:1000F000F7010008F7010008F7010008F701000800
:10010000F7010008311D0008F7010008F701000899
:10011000F7010008F7010008F93C0008F7010008A2
:10012000F7010008F7010008F7010008F7010008CF
:10013000DFF80CD000F0FEF90048004751F2020849
:1001400058A00020224B19680868B0E8F00F80F32F
:100150000988BFF36F8F4FF0000080F311884EF0D5
:100160000D0E70470000000006480068006880F32C
:10017000088862B661B6BFF34F8FBFF36F8F00DFA1
:1001800000BF00BF08ED00E0EFF30980BFF36F8F01
:100190000F4B1A6820E9F00F106008B54FF05000BF
:1001A00080F31188BFF34F8FBFF36F8F36F0A8F93C
:1001B0004FF0000080F31188BDE808401968086816
:1001C000B0E8F00F80F30988BFF36F8F704700BF6E
:1001D00088000020EFF30580704700000648804744
:1001E00006480047FEE7FEE7FEE7FEE7FEE7FEE71C
:1001F000FEE7FEE7FEE7FEE7993C00083101000854
:100200002DE9F05F0546002092469B46884606464B
:10021000814640241BE0284641464746224600F0DE
:1002200042F953465A46C01A914110D31146184616
:10023000224600F029F92D1A67EB01084F462246A5
:100240000120002100F020F917EB00094E41201E8B
:10025000A4F10104DFDC484631462A464346BDE8A6
:10026000F09F2DE9F0410024061B254671F10006A0
:1002700005DA01240027D0EB070067EB0101161E09
:1002800073F1000605DA0027D2EB0702012567EBC0
:100290000303FFF7B5FF86460E4617469C46AC4261
:1002A00004D00025D0EB050E65EB010624B100203B
:1002B000D2EB000760EB030C704631463A466346CA
:1002C000BDE8F08140EA01039B0703D009E008C9BB
:1002D000121F08C0042AFAD203E011F8013B00F80B
:1002E000013B521EF9D27047D2B201E000F8012B57
:1002F000491EFBD270470022F6E710B513460A46A6
:1003000004461946FFF7F0FF204610BD421E12F8C2
:10031000013F002BFBD111F8013B02F8013B002B00
:10032000F9D17047421C10F8011B0029FBD1801A3B
:10033000704710B5002200E0521C835C8C5CA34225
:1003400001D1002BF8D1D8B2E1B2401A10BD03465A
:1003500011F8012B00F8012B002AF9D1184670473B
:1003600080EA010210B502F00043400022D04A00AA
:100370001FD0010E01EB1261C0F35600C2F356020A
:1003800040F4000042F40002A0FB022000047F3988
:10039000140400D0401C50EA124001D44000491E11
:1003A000C2B20C0604EBD010401C4008802A02D0D8
:1003B00003E0002010BD20F00100002900DA002039
:1003C000184310BD30B480EA010202F0004530F05D
:1003D000004221F0004013D090B1C30DD40DC2F300
:1003E0001601C0F31600E41A41F4000140F40002C3
:1003F0007D34914201D3641C00E04900002C02DAF4
:1004000030BC002070474FF400000023914201D31C
:10041000891A034340084FEA4101F7D151B1914293
:1004200002D14FF0004105E002D24FF0010101E09E
:100430006FF0010103EBC450284430BC00F043B816
:1004400096230022114600F047B820F00040C10D6D
:10045000C0F3160040F400007F2901DA0020704745
:10046000962903DCC1F19601C8407047963988404F
:1004700070470000002801DBC0F10040002901DBCB
:10048000C1F1004181427047202A04DB203A00FA82
:1004900002F1002070479140C2F1200320FA03F3DB
:1004A000194390407047202A04DB203A21FA02F0D9
:1004B0000021704721FA02F3D040C2F1200291409E
:1004C0000843194670470029A8BF7047401C4900DF
:1004D00008BF20F00100704710B4B0FA80FC00FAA9
:1004E0000CF050EA010404BF10BC704749B1CCF1D4
:1004F000200421FA04F411FA0CF118BF0121214360
:100500000843A3EB0C01CB1D4FEA00614FEA10201A
:1005100042BF002010BC704700EBC35010440029BC
:10052000A4BF10BC7047401C490008BF20F0010068
:1005300010BC7047064C074D06E0E06840F0010330
:1005400094E8070098471034AC42F6D3FFF7F4FD67
:10055000CCB70308ECB7030870B58C1810F8015B32
:1005600015F0070301D110F8013B2A1106D110F84C
:10057000012B03E010F8016B01F8016B5B1EF9D150
:100580002B0705D40023521E0DD401F8013BFAE7D6
:1005900010F8013BCB1A921C03E013F8015B01F841
:1005A000015B521EF9D5A142D8D3002070BD00BF17
:1005B000FEE700001FB50121042001F08FFA0121A0
:1005C000082001F08BFA0121084601F087FA10207B
:1005D0008DF803000120ADF8000003208DF8020023
:1005E00069461A4800F0F8FE48208DF803002020E4
:1005F000ADF800006946164800F0EEFE0521012026
:1006000000F0CAFE17208DF80C0003208DF80D00B5
:100610008DF80E0001208DF80F0003A801F0FCF901
:100620002020019000208DF808000C208DF8090092
:1006300001208DF80A0001A800F050FC202000F0F5
:1006400033FC0120034908601FBD00000008014081
:10065000000C0140800121421CB500200190009057
:1006600001F0B8F9FFF7A6FF00F03CF801A9A720B8
:1006700000F020F86946A92000F01CF89DF804104D
:1006800005A003F07FFD9DF8001006A003F07AFDA1
:1006900000F028F81CBD00004368697049443A2501
:1006A000640A0000467756657273696F6E3A256476
:1006B0000A00000070B505460C4600F0D7FF2A205E
:1006C00000F0C0FF284600F0BDFF00F0CFFF2B2058
:1006D00000F0B8FF002000F07FFF207000F0E4FF82
:1006E00070BD000010B50020064908600A2009F01E
:1006F0008BF901200449C1F88001322009F084F906
:1007000010BD000080012142000021427CB5002480
:10071000002569460120FFF7CDFF0DF101010320FF
:10072000FFF7C8FF0DF102010420FFF7C3FF0DF131
:1007300003010520FFF7BEFF01A90620FFF7BAFF5E
:100740009DF800000D4908709DF802009DF8011009
:1007500001F00F0140EA01249DF804009DF8031008
:1007600001F00F0140EA0125F02C06DAB5F58C7F87
:1007700003DA03480480034805807CBD480000205C
:100780004A0000204C00002070B500254FF4803452
:1007900004E0802001F0B8FA00B103E0201EA4F1CB
:1007A0000104F6D100BF0CB9032070BD40F2FF5028
:1007B00001F064FA2846F8E770B5044605E01548EC
:1007C000456B05F0450000B100E0F8E700BF0420EC
:1007D00001F09AFA20B1042001F050FA032070BD14
:1007E000012001F091FA20B1012001F047FA012027
:1007F000F5E708480069A04201D01020EFE740F279
:10080000FF50044988630846406908210840C0B287
:10081000E5E700000080014070B500264FF4803508
:1008200005E01148446B04F0450000B103E0281EC8
:10083000A5F10105F5D100BF15B104F0040028B100
:100840000326042001F01AFA304670BD012001F0A1
:100850005BFA18B10126012001F010FA40F2FF50B6
:1008600001F00CFA3046F0E70080014010B505E0D9
:100870000B48446B04F0450000B100E0F8E700BF0E
:10088000042001F041FA20B1042001F0F7F903201F
:1008900010BD40F2FF5001F0F1F90020F8E7000030
:1008A000008001402DE9F04105460E464FF000085A
:1008B00005E01F48476B07F0450000B100E0F8E78E
:1008C00000BF042001F020FA28B1042001F0D6F97D
:1008D0000320BDE8F081012001F016FA20B10120CB
:1008E00001F0CCF90120F4E711480069A84201D0D9
:1008F0001020EEE740F2FF5001F0C0F90C484469C7
:1009000004F4604018B9200C30804046E1E704F45C
:10091000005008B11320DCE704F4804008B1102037
:10092000D7E704F4004008B10F20D2E74046D0E7F3
:100930000080014070B500264FF4803505E00F4877
:10094000446B04F0450000B103E0281EA5F1010549
:10095000F5D100BF15B104F0040028B1032604202E
:1009600001F08CF9304670BD04F0400018B100264B
:10097000402001F083F93046F5E700000080014097
:1009800021B1026842F00102026004E002684FF601
:10099000FE731A400260704701684FF6FE72114004
:1009A00001600021016041608160C1604B49884263
:1009B00008D14A490839496841F00F01474A083AC5
:1009C00051608AE045491431884208D143490839C9
:1009D000496841F0F001414A083A51607DE03F49E1
:1009E0002831884208D13D490839496841F470618D
:1009F0003A4A083A516070E038493C31884208D19F
:100A000036490839496841F47041344A083A51601E
:100A100063E032495031884208D130490839496889
:100A200041F470212D4A083A516056E02B49643157
:100A3000884208D129490839496841F47001274A98
:100A4000083A516049E025497831884208D1234964
:100A50000839496841F07061204A083A51603CE029
:100A60001F49884206D1011F096841F00F01021F8A
:100A7000116032E01A491431884208D11849091F1F
:100A8000096841F0F001164A121F116025E014496F
:100A90002831884208D11249091F096841F4706160
:100AA0000F4A121F116018E00D493C31884208D1ED
:100AB0000B49091F096841F47041094A121F11606E
:100AC0000BE007495031884207D10549091F0968E1
:100AD00041F47021024A121F116070470800024061
:100AE0000804024010B50022026847F6F0739A43EA
:100AF0000C6A8B6823430C6923434C6923438C693C
:100B00002343CC6923434C6A23438C6A23431A430F
:100B10000260CB6843600B6883604B68C36010BDA4
:100B200010B50446214610A003F02CFB240300F06E
:100B300037F900F0CFF800200D490860202002F0BE
:100B400027FDC4F3074002F023FDC4F3072002F0A1
:100B50001FFDE0B202F01CFD01200649C1F8B00102
:100B600000F0B8F810BD000066653A25780D0A005F
:100B7000B08121420080214208B501214FF48470E8
:100B800000F0ACFF4FF48050ADF8000010208DF85D
:100B9000030003208DF802006946124800F01CFC97
:100BA0004FF480510F4800F0ABFC8020ADF80000FE
:100BB00069460D4800F010FC80210B4800F0A0FCB5
:100BC00001200A49086002F09DFC002002F0FCFCB4
:100BD00000F046F8064908800846018805A003F0A1
:100BE000D1FA08BD000C014000200140B081214233
:100BF00028000020CAB9D3C3B5C4464C415348D0DD
:100C0000BEC6AC4944CAC7A3BA25580D0A000000A5
:100C10002DE9F04106460C46174600200F490860B2
:100C2000032002F0B5FCC4F3074002F0B1FCC4F3AA
:100C3000072002F0ADFCE0B202F0AAFC002505E0BE
:100C4000FF2002F0A5FC7055681C85B2BD42F7DBA1
:100C5000012002490860BDE8F0810000B081214216
:100C600010B5002400200E490860902002F090FC8E
:100C7000002002F08DFC002002F08AFC002002F02F
:100C800087FCFF2002F084FC44EA0024FF2002F0ED
:100C90007FFC044301200349C1F8B001204610BD88
:100CA000B08121420080214210B500240020074974
:100CB0000860052002F06CFCFF2002F069FC04468D
:100CC00001200349C1F8B001204610BDB081214286
:100CD0000080214210B500BFFFF7E6FF00F00100E1
:100CE0000028F9D110BD00002DE9F05F81460F46C4
:100CF0001646DFF8A8B04FEA1738C7F30B0ACAF553
:100D00008054A64200DC344644E04FEA08314FF4F8
:100D100080525846FFF77CFF002508E00AEB0500EB
:100D20001BF80000FF2800D003E0681C85B2A54234
:100D3000F4DB00BFA54216DA4046FFF7F1FE0025BE
:100D400007E019F8050005EB0A010BF80100681C23
:100D500085B2A542F5DB4FEA08314FF48052584680
:100D600000F02EF804E022463946484600F028F804
:100D7000A64200D10FE008F101084FF0000AA1449B
:100D80002744301B86B2B6F5805F02DD4FF48054F5
:100D900000E03446B9E700BFBDE8F09FFC02002048
:100DA00010B5002004490860062002F0F1FB012084
:100DB0000249C1F8B00110BDB0812142008021423A
:100DC0002DE9F04107460E461446F0B2C0F5807595
:100DD000AC4200DC254612E02A463146384600F097
:100DE00013F8AC4200D10BE02F442E44601B84B2B8
:100DF000B4F5807F02DD4FF4807500E02546EBE717
:100E000000BFBDE8F08100002DE9F04106460C4628
:100E10001746FFF7C5FF00200F490860022002F0C7
:100E2000B7FBC4F3074002F0B3FBC4F3072002F0A2
:100E3000AFFBE0B202F0ACFB002504E0705D02F015
:100E4000A7FB681C85B2BD42F8DB0120024908609F
:100E5000FFF740FFBDE8F081B081214210B52020AE
:100E600000F028F801280AD1FFF750FC0648038853
:100E7000064802880648017806A003F083F920207E
:100E800000F012F810BD00004C0000204A000020C5
:100E9000480000205374613A25642C583A25642C8C
:100EA000593A2564090A00000149086070470000AA
:100EB00014040140014600200022074B1B6803EA8E
:100EC0000102054B14331B680B4013B10AB101201A
:100ED00000E0002070470000000401400021234989
:100EE0008279002A3AD00A46126803689A430B4670
:100EF0001A600A1D126803689A430B1D1A60027972
:100F000011440A6803681A430A60184A08321268D2
:100F100003689A43154B08331A601A1D1268036858
:100F20009A43124B0C331A604279102A0ED11A1FC1
:100F3000126803681A430D4B08331A601A1D1268B1
:100F400003681A43094B0C331A600DE007494279D4
:100F500011440A6803681A430A6005E002791144E3
:100F60000A6803689A430A60704700000004014061
:100F700010B500240EE04FF40D7100202FF03EF963
:100F8000184941F82400084650F8240000B903E04D
:100F9000601CC4B2042CEEDB00BF4FF414710020BF
:100FA0002FF02CF9104908604FF4147100202FF035
:100FB00025F90E4908604FF4007100202FF01EF94A
:100FC0000B490860042C0AD10748006838B107486B
:100FD000006820B10846006808B1002010BD01205B
:100FE000FCE70000E06B0020740000207800002087
:100FF0008400002051B18200A2F1C042126842F088
:1010000001038200A2F1C042136009E08200A2F154
:10101000C0421268034B1A408300A3F1C0431A6018
:1010200070470000FEFF0F00D0E901121143C268B3
:101030001143026911434269114382691143C26934
:101040001143026A1143426A1143826A1143C26A20
:101050001143026B114302689200A2F1C042116079
:10106000816808290BD101688900A1F1C041096894
:1010700041F0400201688900A1F1C0410A60416B62
:101080000968426B526841EA0211426B926841EA78
:101090000221426B928941EA0241426B128A41EA83
:1010A0000251426B127D41EA0261426B9269114327
:1010B0000268521C9200A2F1C0421160C16AB1F5EF
:1010C000804F1BD1816B0968826B526841EA021123
:1010D000826B926841EA0221826B128A41EA0251D4
:1010E000826B127D41EA0261826B92691143026850
:1010F0009200A2F1C042C2F8041107E06FF0704202
:1011000001688900A1F1C041C1F8042170470000C5
:1011100000B597B001214FF4F07000F0DFFC012121
:10112000080200F0BBFC03208DF85A004FF48060E9
:10113000ADF8580018208DF85B0016A92D4800F076
:101140004BF90320ADF8580016A92B4800F044F9DC
:101150003020ADF8580016A9284800F03DF94FF6A8
:101160000370ADF8580016A9244800F035F94FF681
:101170008070ADF8580016A91F4800F02DF94FF205
:101180003F00ADF8580016A91D4800F025F93F2092
:10119000ADF8580016A9174800F01EF9002000907D
:1011A0000190082002900020039004900590069082
:1011B0000420079000200890099010200A90002039
:1011C0000B900D900C900E900F904FF4805010905B
:1011D0000020119012901390CDF850D0CDF854D03B
:1011E00007A8FFF721FF01210420FFF703FF17B035
:1011F00000BD000000200140001801400014014023
:10120000001C01402DE9FC4107460D460026002444
:1012100000200090019008205B4908601020486081
:10122000402088600020C8604FF480600861084654
:1012300000F0A0FD1020FFF7BFFA044614B12046CD
:10124000BDE8FC815148008800044F490860372000
:101250004860402088600020C8604FF480600861CA
:10126000084600F087FD3720FFF7A6FA04460CB1C8
:101270002046E5E74FF0FF30454908600820486008
:10128000302088600220C860002008610120486189
:10129000084600F00FFD00203B49086033204860FD
:1012A000402088600020C8604FF4806008610846D4
:1012B00000F060FD3320FFF77FFA04460CB12046B2
:1012C000BEE70CE04FF4001000F01EFD38B100F056
:1012D0004BFD4DF82600761C022E00D306E02D486B
:1012E000406B40F22A6108400028EBD000BF082084
:1012F00000F00AFD20B1082000F0C0FC04209FE7A8
:10130000022000F001FD20B1022000F0B7FC022015
:1013100096E7202000F0F8FC20B1202000F0AEFC81
:1013200006208DE74FF4007000F0EEFC28B14FF47A
:10133000007000F0A3FC072082E740F2FF5000F0AD
:101340009DFC00980006009901F47F4140EA0120CD
:10135000009901F47F0140EA1120009940EA1160F0
:10136000686001980006019901F47F4140EA01207C
:10137000019901F47F0140EA1120019940EA1160CE
:10138000286020465CE70000181300203000002091
:101390002C1300200080014030B500228B071C0F69
:1013A0000F2303FA04F20B4B8C1053F824309343B1
:1013B000084C8D1044F8253023468C1053F8243007
:1013C0008C07240F00FA04F42343024C8D1044F8D8
:1013D000253030BD080001402DE9F04102460025CE
:1013E0000026002000230024002791F803C00CF001
:1013F0000F0591F803C00CF0100CBCF1000F03D0E6
:1014000091F802C04CEA050591F800C0BCF1000F4C
:1014100031D0146800202BE04FF0010C0CFA00F3DF
:10142000B1F800C00CEA03069E4220D183004FF0C1
:101430000F0C0CFA03F7BC4305FA03FC4CEA040456
:1014400091F803C0BCF1280F06D14FF0010C0CFA43
:1014500000FCC2F814C00AE091F803C0BCF1480FC8
:1014600005D14FF0010C0CFA00FCC2F810C0401C72
:101470000828D1D31460B1F800C0BCF1FF0F34DDEF
:10148000546800202EE000F1080C4FF0010808FA23
:101490000CF3B1F800C00CEA03069E4221D1830090
:1014A0004FF00F0C0CFA03F7BC4305FA03FC4CEAAF
:1014B000040491F803C0BCF1280F05D100F1080C19
:1014C00008FA0CF8C2F8148091F803C0BCF1480F78
:1014D00007D100F1080C4FF0010808FA0CF8C2F827
:1014E0001080401C0828CED35460BDE8F08102462D
:1014F000002093680B400BB1012000E000207047F2
:101500000161704700BFFEE710B500F051FA0020FE
:10151000094908600949C1F89C01052008F09AFAB8
:10152000012005490860052008F094FA00200349CD
:10153000C1F8980110BD000098812142008021422D
:1015400010B500200949086001200949C1F89C0133
:10155000052008F07FFA012004490860052008F002
:1015600079FA00200249C1F8980110BD9881214202
:101570000080214210B50020094908600949C1F8DE
:101580009C01052008F066FA012005490860052045
:1015900008F060FA00200349C1F8980110BD00006E
:1015A000988121420080214210B500F001FA00200C
:1015B0000749086001200749C1F89C01052008F08F
:1015C00049FA012002490860052008F043FA10BDDD
:1015D000988121420080214270B50546002600F026
:1015E000D5F9012014490860052008F033FA802459
:1015F00017E080211148FFF77AFF012800D1264328
:10160000052008F027FA00200B490860052008F0A3
:1016100021FA01200A49C1F89801052008F01AFAB8
:101620006410002CE5D1012D02D1FFF76DFF01E020
:10163000FFF7BAFF304670BD98812142000C01408F
:101640000080214270B5054600F0B2F9802408E020
:1016500005EA040010B1FFF773FF01E0FFF78AFF0E
:101660006410002CF4D100F03BF870BD10B500F010
:101670009FF900200A49086001200A49C1F89C012D
:1016800007490860052008F0E5F900200549C1F880
:101690009C01052008F0DEF900200149086010BD1A
:1016A000988121420080214210B500F081F900208C
:1016B000094908600949C1F89C01012006490860F0
:1016C000052008F0C7F901200449C1F89C01052054
:1016D00008F0C0F910BD000098812142008021422D
:1016E00010B500F065F901200F49086000F04EF9CF
:1016F00001200E49C1F89801052008F0ABF907E078
:10170000601CC4B2C82C03DDFFF7CEFF002010BD63
:1017100080210748FFF7EBFE0028F1D10249091F9D
:1017200008600120F3E700009C81214200802142F3
:10173000000C014072B6704762B670471CB5044693
:101740000020019000902148008800042049086092
:101750000D204860402088600020C8604FF4806001
:101760000861084600F006FB1A48406B009002E052
:101770001848406B0090009800F045000028F7D012
:10178000012000F0C1FA20B1012000F077FA012019
:101790001CBD042000F0B8FA20B1042000F06EFA5D
:1017A0000320F5E70B4800690D2801D01020EFE772
:1017B00040F2FF5000F062FA06484069019001983B
:1017C000C0F3432020700020E2E70000300000203A
:1017D000181300200080014008B50121442000F0CA
:1017E0007DF90120ADF8000028208DF8030069463E
:1017F0000648FFF7F1FD1C20ADF8000048208DF8E9
:10180000030069460248FFF7E7FD08BD00080140F4
:101810000018014010B50246012000E050430B1EA5
:10182000A1F10104E1B2F9D110BD10B5029C10BDC7
:101830002DE9FF4F81B0074691461E460E9D4FF0A1
:10184000000A002439E0301B401EC1B20A20FFF715
:10185000E1FFB9FBF0F00A21B0FBF1F201FB120845
:10186000BAF1000F16D1701EA04213DDB8F1000FBF
:101870000ED10020AB4605EBDB71491001FB047172
:10188000009088B22B4620220299FFF7CEFF12E08B
:101890004FF0010A0020AB4605EBDB71491001FB5C
:1018A0000471009088B208F13001CAB22B46029947
:1018B000FFF7BBFF00BF601CC4B2B442C3DB05B07E
:1018C000BDE8F08F2DE9F84704460D46904699464D
:1018D000DDE9096704F0FF0A08EB04001FFA80F84D
:1018E00009EB05001FFA80F916E0444502DB544677
:1018F000A81985B24D4500DB14E0002000903A782D
:10190000334629462046FFF790FF304606EBD0715C
:1019100004EB61018CB27F1C38787E2802DC3878B9
:101920002028E2DA00BFBDE8F887000008B50121F1
:10193000482000F0D3F82020ADF8000010208DF8EA
:10194000030003208DF8020069460948FFF744FDB3
:1019500020210748FFF7D4FD2020ADF8000069469C
:101960000448FFF739FD20210248FFF7C9FD08BDF3
:10197000000C01400018014000BF2BF07DFF01E08A
:101980002CF090FEFCE700BFFEE7000008B5482001
:101990008DF803008020ADF8000003208DF80200D0
:1019A00069460248FFF718FD08BD0000000C014021
:1019B00008B510208DF803008020ADF8000003204A
:1019C0008DF8020069460248FFF706FD08BD0000D9
:1019D000000C014008B510208DF803004020ADF840
:1019E000000003208DF802000121082000F076F8A5
:1019F00069460548FFF7F0FC0120044908600449E6
:101A0000C1F89C0108BD0000000C014098812142F2
:101A1000008021427047000070B5002100230F2292
:101A2000C47804B3154C246804F4E064C4F5E0649D
:101A3000210AC1F10403CA40447804FA03F184780E
:101A40001440214309010E4C0678A155047804F096
:101A50001F050124AC4005786D11AD0005F1E025AE
:101A6000C5F8004109E0047804F01F050124AC40EA
:101A7000044D0678761145F8264070BD0CED00E067
:101A800000E400E080E100E002490143024A116005
:101A9000704700000000FA050CED00E029B1064A8D
:101AA00052690243044B5A6104E0034A526982437B
:101AB000014B5A61704700000010024029B1064AEC
:101AC000D2690243044BDA6104E0034AD2698243DB
:101AD000014BDA61704700000010024029B1064A4C
:101AE00092690243044B9A6104E0034A926982437B
:101AF000014B9A61704700000010024030B5002190
:101B00000022002400232D4D6D6805F00C0121B149
:101B1000042905D0082923D105E0294D056022E0DC
:101B2000274D05601FE0254D6D6805F47012234DAB
:101B30006D6805F48034022505EB92421CB9214DF5
:101B4000554305600BE01D4D6D6805F400351DB172
:101B50001C4D5543056002E0194D5543056002E0F8
:101B6000174D056000BF00BF144D6D6805F0F00112
:101B70000909154D6B5C0568DD4045600F4D6D68CA
:101B800005F4E061090A104D6B5C4568DD40856035
:101B90000A4D6D6805F46051C90A0B4D6B5C4568D0
:101BA000DD40C560054D6D6805F44041890B074D6A
:101BB0006B5CC568B5FBF3F5056130BD00100240F4
:101BC00000127A0000093D000000002010000020F3
:101BD0007CB50546002400200090019000260DB140
:101BE000022600E000262248406900F0007008B19B
:101BF0000E207CBD1F49098888B26946FFF702FBA9
:101C000004460CB12046F4E7019800F4802060B34C
:101C100018480088000418490860372048604020B0
:101C200088600020C8604FF480600861084600F0BA
:101C3000A1F83720FEF7C0FD04460CB12046D8E7D6
:101C40000D48066006200C4948604020886000204E
:101C5000C8604FF480600861084600F08BF80620E9
:101C6000FEF7AAFD04462046C3E72520C1E7000091
:101C700000800140300000201813002001498863D3
:101C80007047000000800140014908607047000073
:101C9000A00030420146034A506820F0FF0008438C
:101CA00050607047008001400149086070470000A3
:101CB0008C05304200210A4B02685A6242689A62DF
:101CC0001A46D16A21F0F701D0E902231A430369C9
:101CD0001A4343691A431143014AD1627047000015
:101CE0000080014000200649086048608860C860A4
:101CF00048628862C862034888630020C8637047EE
:101D000000800140FF07C00001460020034A526BDB
:101D10000A400AB1012000E0002070470080014025
:101D20000248006800F00300704700000080014096
:101D300010B500F053FC10BD00210A4A516847F667
:101D4000FF629143027D83681A4343681A43C36864
:101D50001A4303681A4303691A431143014A516045
:101D60007047000000800140014800687047000093
:101D7000808001400021094B02689A601A46D168B0
:101D80006FF30A01D0E901231A43C3681A430369B8
:101D90001A431143014AD16070470000008001409E
:101DA0000549096821F00301034A116011460968D9
:101DB0000143116070470000008001400149086044
:101DC000704700008080014070B58CB006460C461C
:101DD000154601210220FFF761FE1348FEF7DCFDE6
:101DE00000211148FEF7CCFD1048019002960395A2
:101DF000A0080490002005908020069080000790A5
:101E000080000890002009904FF400500A900020B4
:101E10000B9001A90448FEF765FE00210248FEF779
:101E2000AFFD0CB070BD0000440402408080014052
:101E300070B50446002516480078032801D12720F4
:101E400070BD1348007838B111480078012803D0DC
:101E50000F480078022818D1022C01D32720EFE781
:101E6000E0B2FFF7B5FE05467DB90A48406820F4A8
:101E7000C0500849486008464068A1B240EAC12005
:101E8000044948600846406848602846D8E7000092
:101E90002C00002000800140F0B501460020002207
:101EA000BE4B1B7881F85630BD4B1B88A1F85430CF
:101EB000BC4B1B681A0E93090B70C2F383034B7063
:101EC00002F003038B70B74B1B68C3F30742CA7061
:101ED000B44B1B88C3F307220A71B24B1A784A71BC
:101EE0005B681A0E1301CB80AE4B5B68C3F30742ED
:101EF000CB8843EA1213CB8002F00F030B72A94B7D
:101F00009B88C3F30722D3094B72C2F380138B72F1
:101F1000C2F34013CB72C2F300130B7300234B7355
:101F20009E4B1B783BB19D4B1B78012B03D09B4BE9
:101F30001B78032B4FD193071B0D0B61994B1A791B
:101F40000B6943EA82030B61964B9B681A0E0B697F
:101F500043EA92130B61C2F3C2030B7502F007034D
:101F60004B75904B9B68C3F3074253098B75C2F3C3
:101F70008203CB7593075B0F0B768A4B1B89C3F3E8
:101F800007220B7E43EAD2130B760B695B1C0024FD
:101F9000C1E912340B7E9B1C012404FA03F3DC1705
:101FA000D1E91256A5FB037C06FB03C305FB0433F2
:101FB000C1E912730C7A0123A3400B650024D1E917
:101FC00012650B6DA6FB037C05FB03C306FB043304
:101FD000C1E912732EE0714B1B78022B2AD1714B91
:101FE0001A7993069B0A0B616E4B9B681A0E0B695C
:101FF00043EA02230B616B4B9B68C3F307420B69F7
:1020000013430B61674B1B89C3F307220B695B1CEE
:102010004FF40074A3FB04464FF480630025A4FB37
:10202000037C06FB03C304FB0533C1E912734FF4C1
:1020300000730B65C2F3801301F8193F93065B0E22
:102040004B70584B1A7A4B7843EAD2134B7002F01C
:102050007F038B70534BDB681A0ED309CB70C2F32E
:1020600041130B71C2F382034B7193071B0F8B71EA
:102070004C4BDB68C3F307428B7943EA92138B71B5
:10208000C2F34013CB7100230B7202F001034B72B9
:10209000444B9B89C3F30722D3098B72C2F380138D
:1020A000CB72C2F340130B73C2F300134B73C2F332
:1020B00081038B7302F00303CB733A4B1A7B5308F3
:1020C0000B7401234B74384B1B681A0ECA741939F0
:1020D000354B1B68C3F307421402CC85324B1B8877
:1020E000C3F30722CB8D1343CB852F4B1A781406ED
:1020F0000C635B681A0E0B6B43EA02440C632A4BB9
:102100005B68C3F307420B6B43EA02240C63264B64
:102110009B88C3F307220B6B13430B63224B1A7983
:1021200034235A54204B9B681A0E35235A541E4BA5
:102130009B68C3F3074214068C631B4B1B89C3F3D4
:1021400007228B6B43EA02448C63174B1A7A8B6B22
:1021500043EA02248C63144BDB681A0E8B6B134327
:102160008B63114BDB68C3F307423C235B5C43EAA0
:1021700012143C235C5413071C0DCC870A4B9B891B
:10218000C3F30722CB8F1343CB87074B1A7B54082B
:1021900040235C54012441235C54F0BD2C000020FA
:1021A0003000002044130020541300207CB500258B
:1021B000002401213020FFF791FC012140F2024070
:1021C000FFF76CFC4FF4F850ADF8000018208DF8C4
:1021D000030003208DF8020069463048FFF7FCF841
:1021E0000420ADF8000018208DF8030003208DF8BE
:1021F000020069462A48FFF7EFF88020ADF800009A
:1022000048208DF8030003208DF802006946244819
:10221000FFF7E2F8FFF766FD31208DF8040000209B
:102220008DF805008DF8060001208DF8070001A843
:10223000FFF7F2FB00F0E4F8044614B900F036F8BA
:1022400004461CB91748FFF727FE044634B9154960
:10225000B1F85410080400F04BFD04461CB90120ED
:10226000FFF7E6FD04461CB10F480078032812D1A1
:102270000C4890F8560020B10A4890F85600012802
:1022800001D10A2500E004252846FFF703FD0020C0
:1022900000F046FD044620467CBD000000100140D1
:1022A00000140140681300202C00002038B50024E1
:1022B00001200090FFF734FD08B9252038BD4A48B9
:1022C0000078042821D00020484908600220486096
:1022D000C02088600020C8604FF480600861084614
:1022E000FFF748FDFEF798FA04460CB12046E5E7F3
:1022F0003F4840693F4908603D48806948603C4824
:10230000C06988603A48006AC8603748007858B1A8
:1023100035480078012807D033480078062803D0D4
:1023200031480078022816D1002030490860032087
:102330004860402088600020C8604FF480600861D9
:102340000846FFF717FD69460320FEF7ABFA04467F
:102350000CB12046B2E724480078032816D1BDF816
:102360000000000421490860032048604020886084
:102370000020C8604FF4806008610846FFF7FAFC4F
:10238000FEF74AFA04460CB1204697E71648007853
:10239000042827D0BDF8000017490860BDF80000E8
:1023A00000041249086009204860C02088600020AD
:1023B000C8604FF4806008610846FFF7DBFCFEF759
:1023C0002BFA04460CB1204678E7094840690B49CE
:1023D00008600748806948600548C069886004480B
:1023E000006AC860002069E72C0000201813002054
:1023F00000800140541300203000002044130020CE
:102400002DE9F0470027002400260025A046A1461C
:10241000B2206C4908750020086048608860C86078
:1024200008610846FFF788FC0320FFF7B9FC01208C
:10243000FFF72AFC00BF12E00020634908604860F3
:102440008860C8604FF4806008610846FFF792FC1E
:10245000FEF79AF9044604B903E0781CC7B24A2F84
:10246000EADB00BF14B12046BDE8F0874FF4D57019
:102470005549086008204860402088600020C860F6
:102480004FF4806008610846FFF774FCFEF752FACB
:10249000044624B901204D4908704FF080490020BE
:1024A0004949086037204860402088600020C860A3
:1024B0004FF4806008610846FFF75CFC3720FEF7A8
:1024C0007BF90446002C4BD134E000203E490860E3
:1024D00037204860402088600020C8604FF480604A
:1024E00008610846FFF746FC3720FEF765F9044609
:1024F0000CB12046B8E7364849EA00003249086086
:1025000029204860402088600020C8604FF4806027
:1025100008610846FFF72EFCFEF7A8F904460CB147
:102520002046A1E72B484669012080EAD67080F05A
:1025300001086D1CB8F1000F03D14FF6FF70854202
:10254000C3D34FF6FF70854202D31B2420468BE78E
:1025500006F08040061E32D002201C4908702EE092
:102560001CE01D4818490860012048604020886030
:102570000020C8604FF4806008610846FFF7FAFB4E
:10258000FEF774F904460CB120466DE71148466920
:10259000012080EAD67080F001086D1CB8F1000FB0
:1025A00003D14FF6FF708542DBD34FF6FF708542B3
:1025B00002D31B24204657E7032004490870204615
:1025C00052E7000000130020181300202C00002008
:1025D00000001080008001400080FF8010B5494855
:1025E000406B00F4807070B347480078012814D124
:1025F0000020464908600C20486040208860002088
:10260000C8604FF4806008610846FFF7B3FB0C20F8
:10261000FEF7D2F83E49087002E000203C490870FD
:102620003848806B40F48070364988630846C06B38
:102630004CF23A3188433349C86301203549087068
:102640003348007810BDFFE70220FFF75DFB68B15B
:102650000220FFF713FB2B48C06B4CF23A31884342
:102660002849C86302202A490870EBE70820FFF7D1
:102670004BFB68B10820FFF701FB2248C06B4CF20E
:102680003A3188431F49C863042021490870D9E7BB
:102690002020FFF739FB68B12020FFF7EFFA194837
:1026A000C06B4CF23A3188431649C863062018497A
:1026B0000870C7E71020FFF727FB68B11020FFF76D
:1026C000DDFA1048C06B4CF23A3188430D49C863BB
:1026D00005200F490870B5E74FF40070FFF714FBB1
:1026E00070B14FF40070FFF7C9FA0648C06B4CF2A6
:1026F0003A3188430349C863072005490870A1E7B8
:1027000000209FE7008001403500002018130020C2
:1027100036000020370000202DE9F84F814617468B
:1027200098460A9C4FF0000AD3464D464FF0FF36BC
:10273000B9F1000F02D12620BDE8F88F00208249B0
:10274000C86282480078022805D10402780A40EA6B
:10275000C8574FEA682800207D4988604860401EBD
:102760000860012048610020C86008610846FFF742
:10277000A1FA7548406900F0007008B10E20DBE74F
:10278000002C21DDB4F5006F1EDC601E2040D8B99E
:10279000204606F077FC00906E48046010206D49DA
:1027A0004860402088600020C8604FF48060086165
:1027B0000846FFF7DFFA1020FDF7FEFF8246BAF168
:1027C000000F03D05046B7E72620B5E70098000178
:1027D0005F498860084644604FF0FF300860012080
:1027E00048610220C860002008610846FFF762FACD
:1027F00058480760112057494860402088600020F1
:10280000C8604FF4806008610846FFF7B3FA1120F2
:10281000FDF7D2FF8246BAF1000F01D050468BE798
:102820004D48007800285AD1FEF784FF18E04FF495
:102830000040FFF769FA78B14FF0000B06E042481C
:102840008030006845F82B000BF1010BBBF1080F3D
:10285000F5D32035414E03E00EB904206CE7761E17
:102860003948406B40F22A6108400028DFD0082038
:10287000FFF74AFA20B10820FFF700FA04205BE7CF
:102880000220FFF741FA20B10220FFF7F7F90220FA
:1028900052E72020FFF738FA20B12020FFF7EEF9A9
:1028A000062049E74FF40070FFF72EFA28B14FF4E5
:1028B0000070FFF7E3F907203EE703E0FFF754FA63
:1028C00028602D1D4FF40010FFF71EFA0028F5D1E7
:1028D000FEF732FF40F2FF50FFF7D0F931E01E481B
:1028E000007801282DD1002221464846FFF76CFAD6
:1028F00000201B4908701B4908701B4908701248CA
:10290000C06B40F22A3108430F49C8630120FFF72A
:10291000CBF900E0761E1548006800F4005038B985
:102920001148007820B90E48007808B9002EF1D17E
:102930000EB9042000E70A48007810B1084890F862
:1029400000A05046F8E60000008001402C00002066
:102950002C1300201813002034000020FFFF7F00FC
:10296000360000203500002037000020000402401F
:102970002DE9FE4F83460C4691460020029000262A
:1029800025462C46700240EAD5566D020BF0030036
:10299000F0B14FF0000A18E04FF4007000904FEAD9
:1029A0004A20471946EBE0733A461648FFF7B4FE53
:1029B00002904FF4007213495846FDF783FC0BF563
:1029C000007B0AF1010000F0FF0ACA45E4DB16E0D3
:1029D000B9F1010F09D14FF400702A463346009037
:1029E0005846FFF799FE029009E04FF400702A461E
:1029F0003346CDE90009584600F006F802900298E7
:102A0000BDE8FE8FC01300202DE9FF5F17469846F2
:102A1000DDE90E464FF00009CA464FF0FF35A949DF
:102A2000009808600020A849C862A84800780228D9
:102A300005D10402780A40EAC8574FEA6828002006
:102A4000A34988604860401E08600120486100205A
:102A5000C86008610846FFF72DF99B48406900F0FF
:102A6000007018B10E2004B0BDE8F09F002C21DDED
:102A7000B4F5006F1EDC601E2040D8B9204606F079
:102A800001FB83469348046010209249486040202F
:102A900088600020C8604FF4806008610846FFF736
:102AA00069F91020FDF788FE8146B9F1000F03D0C7
:102AB0004846D8E72620D6E7012E70D906FB04F059
:102AC000B0F1007F01D32620CDE74FEA0B108049FB
:102AD000886006FB04F048604FF0FF30086001207A
:102AE00048610220C860002008610846FFF7E2F84C
:102AF00078480760122077494860402088600020AD
:102B0000C8604FF4806008610846FFF733F912206F
:102B1000FDF752FE8146B9F1000F01D04846A2E709
:102B20006D48007800287DD1FEF704FE1EE04FF4CA
:102B30000040FFF7E9F8A8B14FF0000A08E062484A
:102B4000803000685F49096841F82A000AF1010AEB
:102B5000BAF1080FF3D35B48006820305949086088
:102B60005E4D03E00DB904207DE76D1E5648406BB5
:102B700040F22A3108400028D9D00820FFF7C4F8D5
:102B800020B10820FFF77AF804206CE70220FFF755
:102B9000BBF828B10220FFF771F8022063E78EE04E
:102BA0002020FFF7B1F820B12020FFF767F80620BA
:102BB00059E74FF40070FFF7A7F828B14FF4007001
:102BC000FFF75CF807204EE709E0FFF7CDF83D4935
:102BD000096808603B480068001D3A4908604FF4E6
:102BE0000010FFF791F80028EFD14FF48070FFF745
:102BF0008BF820B33548007838B134480078012884
:102C000003D032480078022819D1002031490860E9
:102C10000C204860402088600020C8604FF480602D
:102C2000086100E012E00846FFF7A4F80C20FDF769
:102C3000C3FD8146B9F1000F01D0484613E7FEF706
:102C40007BFD40F2FF50FFF719F838E0224800788A
:102C5000012834D106FB04F100220098FFF7B4F8F4
:102C600000201F49087001201E49087000201E49DD
:102C700008701548C06B40F22A3108431249C863F6
:102C80000846C06A40F00800C86200E06D1E1748A0
:102C9000006800F4005008B9002DF7D10DB90420E8
:102CA000E1E600BF1048007818B90D480078002808
:102CB000F8D00B48007810B1094890F800904846C9
:102CC000D1E6000038000020008001402C000020E8
:102CD0002C1300201813002034000020FFFF7F0079
:102CE000360000203500002037000020000402409C
:102CF00010B5044609480460072008494860402090
:102D000088600020C8604FF4806008610846FFF7C3
:102D100031F80720FDF750FD10BD0000181300200A
:102D200001460020012900D011B9024B197000E0C2
:102D300026207047340000202DE9FF5F86B017463B
:102D40009846149D0026002005900490002481469A
:102D50000390824602900195DDF818B0DDF818B0B6
:102D6000BBF1000F03D126200AB0BDE8F09F002080
:102D7000C449C862C44988604860401E0860012098
:102D800048610020C86008610846FEF793FFBD480F
:102D9000406900F0007008B10E20E5E7BB480078FC
:102DA000022805D10502780A40EAC8574FEA682888
:102DB000002D1FDDB5F5006F1CDC681E2840C8B96A
:102DC000284606F05FF90590B14805601020B0492B
:102DD0004860402088600020C8604FF4806008612F
:102DE0000846FEF7C7FF1020FDF7E6FC06461EB1B9
:102DF0003046B9E72620B7E7A64800880004A44972
:102E000008600D204860402088600020C8604FF4B2
:102E1000806008610846FEF7ADFF0D20FDF7CCFC91
:102E200006460EB130469FE79648406903904FF042
:102E3000FF341BE0641E9748008800049449086032
:102E40000D204860402088600020C8604FF48060FA
:102E500008610846FEF78EFF0D20FDF7ADFC064623
:102E60000EB1304680E7874840690390039800F42C
:102E7000807008B9002CDDD10CB9292074E7844892
:102E80000760182082494860402088600020C860A0
:102E90004FF4806008610846FEF76CFF1820FDF7CC
:102EA0008BFC06460EB130465EE700207A4908707A
:102EB0000598000174498860084645604FF0FF306E
:102EC0000860012048610020C86008610846FEF7DC
:102ED000F1FE4FF0FF347148007800287BD1FEF7F7
:102EE00029FC43E04FF48040FEF70EFFC8B3019881
:102EF000A0EB0900202821D20198A0EB090000F0E6
:102F0000030020B90198A0EB0900800804E00198B3
:102F1000A0EB09008008401C02904FF0000A09E075
:102F2000DBF80000FEF74AFF0AF1010A0BF1040B7F
:102F300009F1040902988245F2D30FE04FF0000A2C
:102F400005E05BF82A00FEF739FF0AF1010ABAF141
:102F5000080FF6D30BF1200B09F120096FF0404464
:102F600004E0FFE70CB90420FEE6641E4548406B10
:102F700040F21A6108400028B4D00820FEF7C4FED1
:102F800020B10820FEF77AFE0420EDE60220FEF7CD
:102F9000BBFE20B10220FEF771FE0220E4E6102005
:102FA000FEF7B2FE20B11020FEF768FE0520DBE63A
:102FB0004FF40070FEF7A8FE30B14FF40070FEF73A
:102FC0005DFE0720D0E606E0FEF7B6FB40F2FF50BC
:102FD0002C4988633EE03148007801283AD110221C
:102FE00029460698FEF7F0FE00202D4908702A4970
:102FF00008702C4908702348C06B40F21A3108430E
:103000002049C8630846C06A40F00800C86200E072
:10301000641E2548006800F4005008B9002CF7D160
:103020001CB9FFF7C3F804209EE64FF0FF3400E020
:10303000641E1C48007820B91948007808B9002C93
:10304000F6D10CB904208FE61548007810B1144869
:10305000007889E640F2FF50FEF710FE04A8FEF764
:103060006DFB064603E004A8FEF768FB06463EB982
:103070009DF810000728F6D09DF810000628F2D021
:10308000304671E6008001402C1300202C00002007
:1030900018130020300000203500002034000020EC
:1030A0003600002037000020000402402DE9FE4FCA
:1030B00081460C46924600200290002625462C466A
:1030C000700240EAD5566D0209F00300F0B14FF0EE
:1030D000000B18E04FF4007249461948FDF7F2F86A
:1030E0004FF4007000904FEA4B20471946EBE07315
:1030F0003A461348FFF720FE029009F500790BF1DC
:10310000010000F0FF0BD345E4DB16E0BAF1010F3C
:1031100009D14FF400702A46334600904846FFF725
:103120000BFE029009E04FF400702A463346CDE9C9
:10313000000A484600F006F802900298BDE8FE8FAB
:10314000C01300202DE9FF5F84B0DDE9124700269F
:10315000002003900290002580468146019007FBE5
:1031600004FBDDF810A0DDF810A0BAF1000F03D1C8
:10317000262008B0BDE8F09F0020D849C862D84991
:1031800088604860401E0860012048610020C860D7
:1031900008610846FEF78EFDD048406900F00070D7
:1031A00008B10E20E5E7CF480078022808D10402D4
:1031B000DDE90601400A40EAC1504912CDE90601A5
:1031C000002C1FDDB4F5006F1CDC601E2040C8B968
:1031D000204605F057FF0390C34804601020C24901
:1031E0004860402088600020C8604FF4806008611B
:1031F0000846FEF7BFFD1020FDF7DEFA06461EB1B9
:103200003046B6E72620B4E7012F6FD907FB04F05C
:10321000B0F1007F01D32620ABE7B248007838B187
:10322000B0480078012803D0AE48007802282DD19C
:10323000AE4800880004AC49086037204860402050
:1032400088600020C8604FF4806008610846FEF77F
:1032500091FD3720FDF7B0FA06460EB1304688E7FB
:10326000A14807601720A0494860402088600020DE
:10327000C8604FF4806008610846FEF77BFD1720A8
:10328000FDF79AFA06460EB1304672E7964906985F
:10329000086019204860402088600020C8604FF412
:1032A000806008610846FEF765FD1920FDF784FA85
:1032B00006460EB130465CE70398000188498860F5
:1032C00007FB04F048604FF0FF30086001204861C0
:1032D0000020C86008610846FEF7ECFC84480078CE
:1032E000002871D1451EFEF725FA40E0DEE07B485C
:1032F000406B00F48040A8B3ABEB080020281ED23E
:10330000ABEB080000F0030018B9ABEB0800800835
:1033100003E0ABEB08008008401C01904FF000096F
:1033200009E0DAF80000FEF749FD09F101090AF1A8
:10333000040A08F1040801988145F2D30FE04FF028
:10334000000905E05AF82900FEF738FD09F10109E6
:10335000B9F1080FF6D30AF1200A08F120086FF03E
:10336000404504E0FFE70DB9042002E76D1E5B480D
:10337000406B40F21A3108400028B8D00820FEF710
:10338000C3FC20B10820FEF779FC0420F1E60220FE
:10339000FEF7BAFC20B10220FEF770FC0220E8E63E
:1033A0001020FEF7B1FC20B11020FEF767FC0520CD
:1033B000DFE64FF40070FEF7A7FC30B14FF4007069
:1033C000FEF75CFC0720D4E62CE04FF48070FEF79B
:1033D0009BFC00B34348007838B14248007801288C
:1033E00003D040480078022815D100203E490860EB
:1033F0000C204860402088600020C8604FF4806046
:1034000008610846FEF7B6FC0C20FDF7D5F9064624
:103410000EB13046ADE6FEF78FF940F2FF50FEF7F1
:103420002DFC43E03248007801283FD107FB04F12E
:1034300010220498FEF7C8FC00202E4908700120D5
:103440002D49087000202D4908702448C06B40F2B7
:103450001A3108432149C8630846C06A40F0080091
:10346000C8624FF0FF3500E06D1E2548006800F48B
:10347000005008B9002DF7D11DB9FEF797FE0420C2
:1034800077E64FF0FF3500E06D1E1C48007820B94C
:103490001848007808B9002DF6D10DB9042068E667
:1034A0001448007810B11348007862E640F2FF50EB
:1034B000FEF7E4FB02A8FEF741F9064603E002A886
:1034C000FEF73CF906463EB99DF808000728F6D0FD
:1034D0009DF808000628F2D030464AE600800140F8
:1034E0002C1300202C000020181300203000002096
:1034F0003400002036000020350000203700002076
:103500000004024000B587B001210820FEF7E6FA6A
:1035100001218803FEF7D2FA4FF46040ADF818009D
:1035200018208DF81B0003208DF81A0006A91648F4
:10353000FDF752FF0020ADF804004FF48270ADF8A3
:1035400006000020ADF808000220ADF80A000120B6
:10355000ADF80C004002ADF80E003820ADF81000B8
:103560000020ADF812000720ADF8140001A90748AB
:1035700000F058F80121054800F03AF8FF2000F06B
:1035800007F807B000BD0000000C01400038004003
:1035900010B5044600BF02210A4800F035F80028A3
:1035A000F9D02146074800F03BF800BF012105484B
:1035B00000F02AF80028F9D0024800F02EF8C0B236
:1035C00010BD00000038004010B5044607480088D0
:1035D0004FF6C77108400549088008460088204317
:1035E00008800121014800F003F810BD00380040B8
:1035F00021B1028842F04002028004E002884FF6C6
:10360000BF731A40028070470246002013890B40A6
:103610000BB1012000E00020704701468889704707
:103620008181704710B50022028802F441520B8854
:103630004C8823438C882343CC8823430C89234321
:103640004C8923438C892343CC8923431A4302802A
:10365000838B4FF2FF74234083830B8A038210BD58
:1036600010B50446552000F0B3F9A178090162783D
:1036700041EAC21122781143C8B200F0C4F910BD6A
:103680002DE9F84F0746884614461D46DDE90A9A9B
:10369000E01BA5EB080100FB01FB681E83B2601E66
:1036A00082B241463846CDF800A000F0CCF90026A1
:1036B00004E039F8160000F09DF9761C5E45F8D359
:1036C000BDE8F88F08B501210420FEF707FA0220B3
:1036D000ADF8000010208DF8030003208DF80200E3
:1036E00069461548FDF778FE02211348FDF708FFEB
:1036F0000420ADF8000010208DF8030003208DF8A1
:10370000020069460C48FDF767FE04210A48FDF7F0
:10371000F7FE0820ADF8000010208DF8030003200C
:103720008DF8020069460448FDF756FE082102485C
:10373000FDF7E6FE08BD00000008014010B5FFF7E8
:10374000C1FF00F0DBF800F0C5F8112000F040F9EF
:10375000782006F059F9002000F05BF93A2000F0DB
:1037600037F9552000F04FF9B22000F031F90C2064
:1037700000F049F90C2000F046F9002000F043F970
:10378000332000F040F9332000F03DF9B72000F07D
:103790001FF9752000F037F9C22000F019F9012057
:1037A00000F031F9C32000F013F9162000F02BF9D6
:1037B000C42000F00DF9202000F025F9C62000F00B
:1037C00007F90F2000F01FF9D02000F001F9A42024
:1037D00000F019F9A12000F016F9D62000F0F8F851
:1037E000A12000F010F9BB2000F0F2F83B2000F01F
:1037F0000AF9E02000F0ECF8F02000F004F90B20CA
:1038000000F001F9112000F0FEF80E2000F0FBF8A6
:103810000D2000F0F8F8192000F0F5F8362000F03F
:10382000F2F8332000F0EFF84B2000F0ECF807201E
:1038300000F0E9F8142000F0E6F8142000F0E3F8B6
:103840002C2000F0E0F82E2000F0DDF8E12000F060
:10385000BFF8F02000F0D7F80D2000F0D4F81220C7
:1038600000F0D1F80B2000F0CEF8092000F0CBF8E2
:10387000032000F0C8F8322000F0C5F8442000F022
:10388000C2F8482000F0BFF8392000F0BCF816203C
:1038900000F0B9F8162000F0B6F82D2000F0B3F8CB
:1038A000302000F0B0F8E42000F092F8252000F07D
:1038B000AAF8002000F0A7F8002000F0A4F82120CA
:1038C00000F086F8292000F083F82C2000F080F822
:1038D00010BD000010B5002006490860642006F005
:1038E00093F801200449C1F88401642006F08CF8A3
:1038F00010BD0000840121420000214200B587B0C4
:10390000012141F20400FEF7E9F82020ADF818008B
:1039100003208DF81A0018208DF81B0006A91C48FA
:10392000FDF75AFD20211A48FDF7EAFD8020ADF889
:10393000180006A91648FDF74FFD80211448FDF731
:10394000DFFD4FF44040ADF804004FF48270ADF855
:1039500006000020ADF808000220ADF80A000120A2
:10396000ADF80C004002ADF80E000820ADF81000D4
:103970000020ADF812000720ADF8140001A9054899
:10398000FFF750FE01210348FFF732FE07B000BDEC
:10399000000801400030014010B5044600200A49EB
:1039A000086000BF02210948FFF72EFE0028F9D069
:1039B00021460648FFF734FE012006F01EF80120DC
:1039C0000149086010BD00008C0121420030014017
:1039D00010B504460020054908602046FFF7DCFFCB
:1039E00001200349C1F8880110BD0000880121426F
:1039F0000000214210B504462012FFF7CDFFE0B2CF
:103A0000FFF7CAFF10BD10B504462046FFF7C4FFFC
:103A100010BD10B504463620FFF7DAFF1CB90020B0
:103A2000FFF7F1FF0EE0012C03D1C020FFF7EBFF01
:103A300008E0022C03D17020FFF7E5FF02E0A02090
:103A4000FFF7E1FF10BD2DE9F04104460D46164693
:103A50001F46DDF81880B8F1000F19D12A20FFF7B2
:103A6000B7FFA0B2FFF7C6FFB0B2FFF7C3FF2B202E
:103A7000FFF7AEFF05F1140188B2FFF7BBFF07F1B6
:103A8000140188B2FFF7B6FF2C20FFF7A1FF52E028
:103A9000B8F1010F19D12A20FFF79AFFA0B2FFF762
:103AA000A9FFB0B2FFF7A6FF2B20FFF791FF05F1AA
:103AB000140188B2FFF79EFF07F1140188B2FFF7E7
:103AC00099FF2C20FFF784FF35E0B8F1020F19D1E0
:103AD0002A20FFF77DFF04F1140188B2FFF78AFF67
:103AE00006F1140188B2FFF785FF2B20FFF770FF66
:103AF000A8B2FFF77FFFB8B2FFF77CFF2C20FFF7DB
:103B000067FF18E02A20FFF763FF04F1140188B271
:103B1000FFF770FF06F1140188B2FFF76BFF2B204F
:103B2000FFF756FFA8B2FFF765FFB8B2FFF762FFD5
:103B30002C20FFF74DFFBDE8F08110B500F002F832
:103B400010BD00000CB500200190009033480068C3
:103B500040F480303149086000BF3048006800F40C
:103B6000003000900198401C0190009818B901980D
:103B7000B0F5A06FF1D12948006800F4003010B111
:103B80000120009001E0002000900098012843D11E
:103B90002348006840F0100021490860084600688A
:103BA00020F0030008600846006840F0020008604A
:103BB0001A48406819494860084640684860084605
:103BC000406840F4806048600846406820F47C10FB
:103BD00048600846406840F4E810486008460068BD
:103BE00040F08070086000BF0C48006800F0007072
:103BF0000028F9D00948406820F0030007494860D0
:103C00000846406840F00200486000BF0348406832
:103C100000F00C000828F9D10CBD00000010024093
:103C200000200240042808D14FF0E021096941F04A
:103C300004014FF0E022116107E04FF0E021096933
:103C400021F004014FF0E0221161704710B532F00D
:103C50004BFE012801D032F0FDFD10BD10B5044629
:103C60006FF00400FFF7DEFFE11704EB5171C1F3C1
:103C7000C701074A11701046007800EB4001C1EB04
:103C8000C0104FF6FF7101EAC0000249088010BD64
:103C90004E0000205000002010B51348006840F08E
:103CA00001001149086008464068104908400E4963
:103CB0004860084600680E4908400B4908600846FD
:103CC000006820F4802008600846406820F4FE0068
:103CD00048604FF41F008860FFF72FFF4FF000602F
:103CE0000449086010BD0000001002400000FFF809
:103CF000FFFFF6FE08ED00E010B50121054800F0D9
:103D00004EF810B101202AF0F1FB0121014800F02A
:103D100037F810BD001000407FB505460C46012164
:103D20001020FDF7CBFEADF80850ADF804400020A0
:103D3000ADF80A00ADF8060001A9104800F04AF8F5
:103D4000012211460D4800F03BF801210B4800F01C
:103D500017F836208DF8000002208DF801000320AE
:103D60008DF8020001208DF803006846FDF754FE2F
:103D70000121024800F007F87FBD0000001000405C
:103D8000CA430282704721B1028842F001020280D8
:103D900004E002884FF6FE731A400280704730B587
:103DA0000246002000230024158A05EA01039589B4
:103DB00005EA010413B10CB1012000E0002030BD80
:103DC0001AB183890B43838102E083898B4383810A
:103DD00070470000002202881D4B98420ED01D4BF8
:103DE00098420BD0B0F1804F08D01B4B984205D0C1
:103DF0001A4B984202D01A4B984204D14FF68F7357
:103E00001A404B881A43174B984207D0164B9842DA
:103E100004D04FF6FF431A40CB881A4302808B88A8
:103E200083850B8803850A4B98420BD0094B984237
:103E300008D00E4B984205D00D4B984202D00D4B46
:103E4000984201D10B7A03860123838270470000D8
:103E5000002C0140003401400004004000080040F4
:103E6000000C0040001000400014004000400140E1
:103E7000004401400048014010B540F225511D4862
:103E800000F0B8F810B31B4800F070F9C4B21A483B
:103E9000008800F40040C8B91748008800F480404A
:103EA00060B10A2C03D000201349088020E012489A
:103EB000008840F400401049088019E00D2C06D11C
:103EC0000D48008840F480400B49088010E00A4803
:103ED0000088C0F30D0009490C5407480088401CB5
:103EE0000549088008460088C72801DD00200880B1
:103EF00010BD00000038014052000020C015002015
:103F000010B586B0044601210420FDF7E7FD01212C
:103F10008803FDF7E3FD4FF40070ADF814000320B3
:103F20008DF8160018208DF8170005A91E48FDF71A
:103F300053FA4FF48060ADF8140004208DF8170098
:103F400005A91948FDF748FA01940020ADF80800CA
:103F5000ADF80A00ADF80C00ADF810000C20ADF87B
:103F60000E0001A9114800F095F801210F4800F05A
:103F700028F840210D4800F01BF8012240F225519D
:103F80000A4800F061F825208DF8000003208DF824
:103F900001008DF8020001208DF803006846FDF74E
:103FA0003BFD06B010BD0000000801400038014094
:103FB00001F40072B2F5007F00D100BFCA43028055
:103FC000704721B1828942F40052828104E08289E3
:103FD0004DF6FF731A408281704702460020B1F50A
:103FE000007F00D100BF13880B400BB1012000E01F
:103FF0000020704770B502460024002300250020F1
:1040000040F66A16B14200D100BFC1F3421501F07B
:104010001F03012606FA03F3012D02D196893340CE
:1040200006E0022D02D1168A334001E0968A334021
:104030000C12012606FA04F41688344013B10CB1B0
:10404000012000E0002070BDF0B5034600240026EA
:104050000025002040F66A17B94200D100BF18467B
:10406000C1F3421401F01F06012707FA06F5012CDF
:1040700001D10C3004E0022C01D1103000E01430EA
:104080001AB107682F43076002E00768AF43076073
:10409000F0BD00002DE9F04786B005460E4600242D
:1040A000A24600BFA1460027B08900B100BF2F463D
:1040B0002C8A4CF6FF700440F08804432C82AC89B3
:1040C0004EF6F3100440B0883189084371890843E3
:1040D0000443AC81AC8A4FF6FF400440B0890443EE
:1040E000AC8201A8FDF70AFD1F48874202D1DDF826
:1040F00010A001E0DDF80CA0A88900F4004040B158
:104100000AEBCA0000EB0A1031684900B0FBF1F875
:1041100007E00AEBCA0000EB0A1031688900B0FB27
:10412000F1F86420B8FBF0F004012009642101FBE0
:104130001089A88900F4004040B1322000EBC9008A
:10414000B0FBF1F000F00700044308E0322000EB80
:1041500009106421B0FBF1F000F00F0004432C8142
:1041600006B0BDE8F08700000038014001468888AD
:10417000C0F308007047C1F308028280704700BF97
:10418000FEE700000FB4054B10B503A9044A0298DE
:1041900002F0FAF910BC5DF814FB0000F9510108B7
:1041A000F80200200FB4084B10B504A902AA039826
:1041B00002F0EAF9044602A9002002F045FB20467D
:1041C00010BC5DF814FB00004968000802E008C854
:1041D000121F08C1002AFAD170477047002001E081
:1041E00001C1121F002AFBD1704770B5044600259B
:1041F00008E02168481C20600878303805EB85010C
:1042000000EB41052168087800F004F80028F0D19F
:10421000284670BD0146302903DB392901DC012025
:1042200070470020FCE7000010B54021074801F06E
:1042300097FB00221E2106482AF0C0F905490860B4
:1042400003F020F800200449087010BD889A00206F
:1042500051730008800200207C02002030B5034624
:10426000B1F90040B2F90050AC4202DDB1F90040B2
:1042700001E0B2F900401C80B1F90240B2F90250ED
:10428000AC4202DDB1F9024001E0B2F902405C80CB
:10429000B1F90440B2F90450AC4202DAB1F9044079
:1042A00001E0B2F904409C80B1F90640B2F9065031
:1042B000AC4202DAB1F9064001E0B2F90640DC8016
:1042C0000120B3F90040B3F90450AC4205DCB3F966
:1042D0000240B3F90650AC4200DD002030BDF8B515
:1042E00004460D4616460027B4F90000B5F9001043
:1042F000884212DBB4F90200B5F9021088420CDBE7
:10430000B4F90400B5F90410884206DCB4F90600DB
:10431000B5F90610884200DC01270FB90020F8BD6E
:104320000EB90120FBE72088ADF800006088ADF8E9
:10433000020032466946284600F0A7F808B9002076
:10434000EDE7A088ADF800006088ADF802003246C5
:104350006946284600F099F808B90020DFE7208870
:10436000ADF80000E088ADF8020032466946284604
:1043700000F08BF808B90020D1E7A088ADF8000064
:10438000E088ADF8020032466946284600F07DF824
:1043900008B90020C3E70120C1E70246B2F90000D6
:1043A000B1F90430984213DCB2F90400B1F90030DD
:1043B00098420DDBB2F90200B1F90630984207DCF1
:1043C000B2F90600B1F90230984201DB01207047D2
:1043D0000020FCE7F8B504460D461646B4F9040083
:1043E000B5F90010884211DBB4F90600B5F90210E6
:1043F00088420BDBB4F90000B5F90410884205DCF3
:10440000B4F90200B5F90610884201DD0120F8BDBB
:104410000EB90020FBE72088ADF800006088ADF8F9
:10442000020032466946284600F02FF808B1002005
:10443000EDE7A088ADF800006088ADF802003246D4
:104440006946284600F021F808B10020DFE72088FF
:10445000ADF80000E088ADF8020032466946284613
:1044600000F013F808B10020D1E7A088ADF80000F3
:10447000E088ADF8020032466946284600F005F8AB
:1044800008B10020C3E70120C1E72DE9FC5F054624
:104490000E4614464FF0000AB6F90000B5F90010B8
:1044A000884213DBB6F90000B5F9041088420DDC30
:1044B000B6F90200B5F90210884207DBB6F902002E
:1044C000B5F90610884201DC4FF0010ABAF1000F7D
:1044D00002D10020BDE8FC9F002C01DC0120F9E79F
:1044E000284615F0C4FE834600EBDB7047102846D3
:1044F00015F035FE834600EBDB704FEA6008474558
:1045000001DA384600E0404681464C4500DD4C4625
:104510002888ADF800002888204400B2ADF80400D7
:104520006888ADF802006888204400B2ADF8060043
:10453000002231466846FFF7A8FF80B1BDF80400AD
:10454000204400B2ADF80400BDF80600204400B2DB
:10455000ADF806003146684626F0CAFBBAE7E8889F
:10456000001B00B2ADF80200E888ADF8060000229A
:1045700031466846FFF789FF80B1BDF8040020444A
:1045800000B2ADF80400BDF80200001B00B2ADF8A7
:1045900002003146684626F0ABFB9BE7A888001B6B
:1045A00000B2ADF80000A888ADF804000022314642
:1045B0006846FFF76AFF80B1BDF80000001B00B23B
:1045C000ADF80000BDF80200001B00B2ADF802001B
:1045D0003146684626F08CFB7CE76888ADF802001F
:1045E0006888204400B2ADF80600002231466846D3
:1045F000FFF74BFF80B1BDF80000001B00B2ADF823
:104600000000BDF80600204400B2ADF806003146B7
:10461000684626F06DFB5DE701205BE710B5B1F958
:104620000030B2F90040A34202DAB1F9003001E0F3
:10463000B2F900300380B1F90230B2F90240A3426E
:1046400002DAB1F9023001E0B2F902304380B1F987
:104650000430B2F90440A34202DDB1F9043001E0B4
:10466000B2F904308380B1F90630B2F90640A342B2
:1046700002DDB1F9063001E0B2F90630C38010BDA9
:104680002DE9FF47064629F021FF814600200390CF
:104690001EB19B49F068086003E018F071FC98496E
:1046A000086097490968086926F080FA944800680C
:1046B000406920B192490968486926F077FA904923
:1046C0000968C86926F072FA8D490968086A26F0F7
:1046D0006DFA8B480068006940B900208849096874
:1046E000A1F8500100BF00BFBDE8FF8726F0FCFD28
:1046F00026F042FD82480068B0F8500100284BD0F7
:104700007F4800680068007CC0F34000E8B17C4846
:10471000006818F0B3FC401E04B27948006818F035
:1047200047FC401E07B23B460022114601A80094F8
:1047300015F0E2FD01A8724909680968896B4860B3
:104740006F48006806F01EFF00BF4FF480716C4890
:104750000068303020F055FC20216948006800F5E1
:10476000987020F04EFC002065490968A1F85001BE
:10477000484629F09DFE0390614800680068406A41
:1047800050B15F49096808685D49096809684B6A62
:104790005C490A680399984720F06AF900F0F6F836
:1047A00000F0BEF858484569002D53D100BF18F0FD
:1047B000E7FB074618F017FC04461EF011FE0546FD
:1047C00000227F21284626F0A2F800BF00221146D1
:1047D000104617F08CFD0190BDF804100846002229
:1047E00001460290284626F075F800BFFF221146C8
:1047F000104617F07CFD0190BDF804100846002219
:1048000001460290284626F047F900220321284657
:1048100026F028F900220321284626F0FCF8002281
:104820000321284626F004F900220321284626F019
:104830000CF900220321284626F021F933A128464D
:104840001FF0D6FD00231A460621284621F072F8F3
:104850002D4845612C49086829F02AFEB0F5967F5D
:1048600010D22848006841F28831884245D926484C
:104870004068039908442449486008468068401C01
:1048800088603AE029F022FE1F4908601C48006851
:10489000406800684FF47A71B1FBF0F71A4840683D
:1048A00010B90120184948601748806808B93C468B
:1048B00008E0154880684FF47A7148431249496806
:1048C000B0FBF1F40020104948608860BC4200D978
:1048D0003C460D48006920440B4908610846C06801
:1048E000401CC86029F0D8FEC0F164084346224647
:1048F00007A128461FF0D4FD00BF00BFF4E600006A
:104900003801002034010020C49800203F0000003E
:104910002575204650530A257525252043505500FE
:1049200010B5002416E0C4EBC4000C4951F8200077
:1049300030B1C4EBC401094A52F8210020F04AF911
:10494000C4EBC401054A02EB81001C2120F059FB95
:10495000601CC4B2042CE6DB10BD0000649B002088
:104960000146094A10680BE042688A4202D0026898
:104970008A4204D1027E22F00102521C0276406972
:104980000028F1D1704700000C01002070470000A2
:1049900010B50421014800F0E3FF10BD7C9A00200F
:1049A00010B51C21014800F0DBFF10BD949A0020D7
:1049B0002DE9FF4F8BB004469A46199DBAF1000FBE
:1049C00011D11898B0F5807F0DD100202080608033
:1049D0000C98401E00B2A0800D98401E00B2E080EE
:1049E0000FB0BDE8F08FB5F9000040421899484378
:1049F0000121C1EB202000B22080B5F90200404225
:104A0000189948430121C1EB202000B26080B5F91C
:104A100000100C98401A18994843022101EB2020FD
:104A200000B2A080B5F902100D98401A18994843B9
:104A3000022101EB202000B2E080BAF1000F14D176
:104A400020882988084400B220806088698808444A
:104A500000B26080A0882988084400B2A080E08865
:104A60006988084400B2E080BAE70A209AFBF0F0B7
:104A70000A900A98401C09900A9800EB8000AAEB63
:104A8000400B0A9800B22AF03DF80890099800B24D
:104A90002AF038F807900A985A3000B22AF032F813
:104AA000069009985A3000B22AF02CF80590CBF104
:104AB0000A0108984143079800FB0B100A2190FB5C
:104AC000F1F6CBF10A0106984143059800FB0B1063
:104AD0000A2190FBF1F776117F11B4F90080B4F947
:104AE000029007FB08F006FB1900298801EBA020C3
:104AF00000B2ADF8100006FB08F007FB090069885A
:104B000001EBA02000B2ADF81200B4F90480B4F9B2
:104B1000029007FB08F006FB1900298801EBA02092
:104B200000B2ADF80C0006FB08F007FB090069882D
:104B300001EBA02000B2ADF80E00B4F90080B4F98A
:104B4000069007FB08F006FB1900298801EBA0205E
:104B500000B2ADF8080006FB08F007FB0900698801
:104B600001EBA02000B2ADF80A00B4F90480B4F95A
:104B7000069007FB08F006FB1900298801EBA0202E
:104B800000B2ADF8040006FB08F007FB09006988D5
:104B900001EBA02000B2ADF80600BDF90800BDF998
:104BA0001010884202DABDF9080001E0BDF91000DA
:104BB000BDF90410BDF90C20914202DABDF90410D0
:104BC00001E0BDF90C1088420BDABDF90800BDF90F
:104BD0001010884202DABDF908000DE0BDF910009E
:104BE0000AE0BDF90400BDF90C10884202DABDF9F3
:104BF000040001E0BDF90C002080BDF90800BDF9FA
:104C00001010884202DDBDF9080001E0BDF9100076
:104C1000BDF90410BDF90C20914202DDBDF904106C
:104C200001E0BDF90C1088420BDDBDF90800BDF9AB
:104C30001010884202DDBDF908000DE0BDF910003A
:104C40000AE0BDF90400BDF90C10884202DDBDF98F
:104C5000040001E0BDF90C00A080BDF90A00BDF917
:104C60001210884202DABDF90A0001E0BDF9120013
:104C7000BDF90610BDF90E20914202DABDF9061009
:104C800001E0BDF90E1088420BDABDF90A00BDF94A
:104C90001210884202DABDF90A000DE0BDF91200D7
:104CA0000AE0BDF90600BDF90E10884202DABDF92E
:104CB000060001E0BDF90E006080BDF90A00BDF9F3
:104CC0001210884202DDBDF90A0001E0BDF91200B0
:104CD000BDF90610BDF90E20914202DDBDF90610A6
:104CE00001E0BDF90E1088420BDDBDF90A00BDF9E7
:104CF0001210884202DDBDF90A000DE0BDF9120074
:104D00000AE0BDF90600BDF90E10884202DDBDF9CA
:104D1000060001E0BDF90E00E08000BF60E62DE96D
:104D2000F74F86B0044620680590B4F9081007983C
:104D3000A0EB0108B4F90A100898A0EB0109E0897A
:104D4000B0F5807F13D1206B00FB08F0E16A01FB16
:104D50001901606A00EBA10BE06A00FB08F0216B0F
:104D600001FB0901A06A00EBA10004902FE0A089DB
:104D700080B9A06B00FB08F04FEA6018A06B00FB45
:104D800009F04FEA6019606A00EB080BA06A48441A
:104D900004901CE0A06B00FB08F04FEA6018A06BC9
:104DA00000FB09F04FEA6019206B00FB08F0E16A94
:104DB00001FB1901606A00EBA12BE06A00FB08F01F
:104DC000216B01FB0901A06A00EBA12004904FEACE
:104DD0002B2604980712B4F90400B04203DC00202B
:104DE00009B0BDE8F08F002E01DA0020F8E7B4F931
:104DF0000600B84201DC0020F2E7002F01DA0020B3
:104E0000EEE73420005DC0F3800050B33420005D35
:104E1000C0F3400078B90225B4F904007843684330
:104E200006FB050A059800EB0A012A4604F1140066
:104E300020F095F82CE00325B4F90400784368438A
:104E400006FB050A6A1E059800EB0A0104F114002E
:104E500020F085F80AEB0500401E0599095CA17554
:104E600016E04FF0000A0025208A03463AB231B21C
:104E7000019004F118001CF061FD0290BDF80800DB
:104E8000A0823AB231B204F118001CF0B7FCA07550
:104E90003420005D00F00100B0B14FF47F400021EC
:104EA00000F47C4241EA5211C0F3C4021143019163
:104EB000BDF8042011460291A08ABDF8081088426E
:104EC00001D100208CE700BFE07C08B9012087E712
:104ED0000FFA8BF1A187049801B2E18731B240202B
:104EE000015339B242200153C4F844A084F8485019
:104EF000204600F003F80390039871E72DE9F04F86
:104F00008DB00446D4F8009094F83C000C9094F8CE
:104F10003E000B900C9870280BDA4FF0FF35B4F977
:104F200040002844002800DA00250C988030C7B2E1
:104F300013E00C9890280EDD0125B4F940002844B8
:104F4000B4F90410884200DB00250C98C0F1FF0082
:104F50008030C7B201E00025FF270B9870280CDADB
:104F60004FF0FF36B4F942003044002800DA002642
:104F70000B98803000F0FF0815E00B9890280FDDAB
:104F80000126B4F942003044B4F90610884200DB2F
:104F900000260B98C0F1FF00803000F0FF0802E00F
:104FA00000264FF0FF08A08A0A90A07D06900020FE
:104FB0000590049003903420005DC0F38000002829
:104FC0005BD094F84800626C00FB052000EB0901FF
:104FD000022209A81FF0C3FFB4F9040094F8482086
:104FE0005043626C00FB062000EB0901022208A876
:104FF0001FF0B5FFB4F9040094F848205043626CE8
:1050000000FB062294F8480000FB052000EB090194
:10501000022207A81FF0A3FF3420005DC0F3400068
:1050200000287ED094F84800616C00FB051108440C
:10503000401E19F800000590B4F9040094F84810D7
:105040004843616C00FB061194F848000844401E78
:1050500019F800000490B4F9040094F8481048438B
:10506000616C00FB061194F8480000FB0511084430
:10507000401E19F80000039053E0208A0090B4F914
:1050800042204020005B284401B204F11800009B3C
:105090001CF054FC0990208A00904220005B3044B0
:1050A00002B2B4F9401004F11800009B1CF046FC59
:1050B0000890208A00904220005B304402B24020D9
:1050C000005B284401B204F11800009B1CF036FC80
:1050D00007903420005DC0F3400010B3B4F94220C3
:1050E0004020005B284401B204F118001CF086FB4C
:1050F00005904220005B304402B2B4F9401004F144
:1051000018001CF07BFB04904220005B304402B28C
:105110004020005B284401B204F118001CF06EFB33
:105120000390BA46BB463420005DC0F34000E0B3B4
:1051300006987843C7F1FF0C059B03FB0C00C0F3F6
:10514000072104987843C7F1FF0C039B03FB0C0075
:10515000C0F3072201FB08F0C8F1FF0302FB0300C4
:10516000030AA375022905DC022A03DC00200DB026
:10517000BDE8F08F022901DC4FF00008022A01DCB3
:105180004FF0FF080698022801DC4FF0000A05984E
:10519000022801DC4FF0FF0A0498022801DC4FF0DE
:1051A000000B0398022803DC00E002E04FF0FF0B45
:1051B00003E0BA46BB46FF21A175BAF1000F02D148
:1051C000099802900BE0BAF1FF0F02D10A98029001
:1051D00005E05246DDE9091017F04AF90290BBF1EB
:1051E000000F02D1079801900BE0BBF1FF0F02D135
:1051F0000898019005E05A46DDE9071017F038F9E4
:105200000190B8F1000F03D1BDF80400A0820FE0B7
:10521000B8F1FF0F03D1BDF80800A08208E04246B4
:10522000DDE9011017F024F90090BDF80000A0821C
:1052300001209CE72DE9F05F0446B4F90800010263
:105240006162B4F90A000102A162B4F90C000A21FA
:1052500090FBF1F56F1CB4F90C0005EB8501A0EB98
:105260004106684200B229F04DFC8046784200B207
:1052700029F048FC8146C5F15A0000B229F042FCF1
:105280008246C7F15A0000B229F03CFC8346C6F1C1
:105290000A0000FB08F009FB06000A2190FBF1F16F
:1052A000E162C6F10A0000FB0AF00BFB06000A21CE
:1052B00090FBF1F12163E06A4111E162206B411141
:1052C0002163A07C1CF049FC3421095D60F30001DE
:1052D00034200155A07C1CF023FC3421095D60F3CF
:1052E000410134200155A07C042805D0A07C05286C
:1052F00002D0A07C062807D13420005D20F00400F5
:10530000001D3421085505E03420005D20F0040123
:105310003420015521682162A06920F0E000A061DD
:10532000A17CA06961F30400A061A188A06961F378
:105330009420A061E188A06961F35F50A061E089D9
:1053400000EBD071491001F5001191FBF0F2A2635E
:10535000FF21A175208AA082BDE8F09F2DE9F743C7
:10536000054616460024134C29F0B0F88046334613
:1053700029462046019A1DF09FF807465FB900BFF5
:1053800000BF2C2120461FF03CFE4FF00040A062E1
:105390000020BDE8FE830020A062E06918B9404605
:1053A00029F086F8E061E06908B90120E061204653
:1053B000EFE70000B89A002010B51421114800F062
:1053C000CFFA1DF02BF8044600BF1CB900BF00BF88
:1053D00000BFFEE700BF14B900BF00BF10BD0A49FF
:1053E00020461DF003F9094920461DF001F908493E
:1053F00020461DF0FFF8074920461DF0F5F800BFD4
:10540000ECE70000A09A0020391C02080D210208D8
:1054100029230208011C020870B504460D4610211C
:1054200028461FF0EEFD20680078012804D1208A6C
:105430002880608A68800CE020680078022802D109
:10544000E068686005E020680078042801D10A203F
:1054500068602068406820B120682946426890470B
:1054600001E000BF00BF70BD2DE9FE430446A66AFF
:10547000EEB9A18A208A084401B2A182E18A608A39
:10548000084401B2E18220460EF0FAFD06460EB94C
:10549000BDE8FE83204612F0A3FD0022092130461C
:1054A0001BF070FA6078C0F3400000B1F0E7208A8A
:1054B00010B9608A002870D000200290019094F802
:1054C0003C0000F00F00032812D1304621F052FEBC
:1054D0000746304621F0D6FD804603200090B4F9FF
:1054E00010103B46424630460DF05CF8029012E048
:1054F000304621F0C1FE0746304621F035FD80469A
:105500000C200090B4F9121043463A4630460DF094
:1055100049F8019000BF304621F086FD054605F0B0
:10552000010028B9BDF90800002801DD0020029023
:1055300005F0020028B9BDF90800002801DA0020B2
:10554000029005F0040028B9BDF90400002801DD2F
:105550000020019005F0080028B9BDF904000028DA
:1055600001DA0020019001AA02A920462CF08AFB52
:105570000023BDF90420BDF90810304624F05AFD7F
:10558000A08ABDF80810084401B2A182E08ABDF8E3
:105590000410084401B2E18200BF00BF78E72DE9A2
:1055A000F84F0446D4F828B0BBF1000F01D1BDE894
:1055B000F88F94F83C0000F00F0000B9F7E71DF0F9
:1055C000FDFA06463068477E4021584623F05CFAD3
:1055D00010B9002161832183584621F039FE8046AD
:1055E000584621F03FFE054694F83C0000F00F00BD
:1055F0000C2843D1002121831DBBB4F91A00C7F147
:1056000064014843642190FBF1F001B26183584684
:1056100021F0AAFC8146584621F02EFE82460C203D
:105620000090B4F91A104B46524658460CF0BAFF97
:105630006083B4F91A2000231946584624F0FAFC76
:1056400069E020462CF075FB0090002161836A46DA
:1056500020462CF017FBBDF9003041F6FF72514295
:1056600058460EF0B5FE8146BDF80000484402B22F
:1056700001230021584624F0DDFC4CE094F83C0066
:1056800000F00F00032846D100216183B8F1000F1C
:1056900023D1B4F91800C7F164014843642190FB99
:1056A000F1F001B22183584621F0ECFC81465846C6
:1056B00021F060FD824603200090B4F91810534693
:1056C0004A4658460CF06EFF2083B4F918100023A8
:1056D0001A46584624F0AEFC1DE020462CF00EFB86
:1056E0000090002121830022694620462CF0CAFA4E
:1056F000BDF9003041F6FF72514258460EF0CEFD22
:105700008146BDF80000484401B2012300225846FA
:1057100024F090FC00BF208B002860D1608B002813
:105720005DD11DBB584621F0A7FD8146584621F0AA
:105730001BFC8246B9F1000F02DCBAF1000F14DD48
:10574000B9F1000F06DA01234A460021584624F039
:1057500071FC0AE0BAF1000F07DA0123CAF1000078
:1057600002B20021584624F065FC00BFB8F1000FDA
:1057700023D1584621F086FC8146584621F0FAFC98
:105780008246B9F1000F02DCBAF1000F14DDB9F165
:10579000000F06DA012300224946584624F04AFC4D
:1057A0000AE0BAF1000F07DA01230022CAF1000073
:1057B00001B2584624F03EFC00BF32460A2158464A
:1057C0001BF0E0F86078C0F3400000B1EFE694F819
:1057D0003C0020F00F0184F83C100021A16200BFC2
:1057E000E5E62DE9FF4104460F4614B917F0C8FB62
:1057F00004460CB9BDE8FF811FB90020A4F8500190
:10580000F8E70020ADF80800ADF80A00204617F0D0
:10581000CFFB401E00B2ADF80C00204617F02EFC66
:10582000401E00B2ADF80E0002AA39466846FEF7E7
:1058300015FD064606B9DDE72068007CC0F3400090
:1058400060B102982063039860630120A4F85001BE
:10585000606810B1606828F0DBFFCBE720688069E2
:1058600018B1206869468269904700250BE004F171
:10587000300000EBC50100226846FEF730FD00B1A4
:10588000B8E7681C85B2B4F85001A842EFDCB4F860
:105890005001202809DAB4F8502104F1300101EB5D
:1058A000C200694614F0CBFB0BE00020A4F85001C5
:1058B000B4F8502104F1300101EBC20002A914F048
:1058C000BEFBB4F85001401CA4F85001606810B150
:1058D000606828F09DFF00BF8CE770B5054628463C
:1058E00000F013F8044600260CE02146284600F09C
:1058F00024F806462146284600F086F820461FF088
:1059000069F93446002CF0D170BD014609B9002078
:1059100070474868FCE770B5064600243046FFF73C
:10592000F4FF054605E0641C2946304600F005F802
:105930000546002DF7D1204670BD02460B46106883
:10594000001D03441868704702460B461068034464
:1059500018687047014609B9002070478868FCE75D
:10596000002242608260CA1C22F00301016070477D
:1059700070B50446216801F108001FF05DF8054686
:10598000A5B10022294620462AF096FC2946204649
:1059900062682AF083FC606820B12A46204661686C
:1059A0002AF08AFC6560A06800B9A560284670BD31
:1059B00070B50446216801F108001FF03DF8054666
:1059C000A5B10022294620462AF068FC2946204637
:1059D000A2682AF071FCA06820B12A462046A1687E
:1059E0002AF05CFCA560606800B96560284670BD5F
:1059F000014609B901207047486818B9886808B994
:105A00000120F8E70020F6E72DE9F04104460D46B5
:105A10000CB9BDE8F0812046FFF777FFA8420FD10F
:105A200029462046FFF789FF6060606810B90020B2
:105A3000A0602FE00022204661682AF03DFC29E0AA
:105A40002046FFF787FFA8420FD129462046FFF7DF
:105A50007BFFA060A06810B9002060601AE00022FF
:105A60002046A1682AF01AFC14E029462046FFF7D8
:105A70006BFF064629462046FFF75FFF07463A467A
:105A8000314620462AF00AFC3246394620462AF0A2
:105A900013FC00BF00BFBCE710B504462068806857
:105AA00018B120682146826890472068006828B1B4
:105AB0002068006820602046FFF7EEFF10BD014619
:105AC000886818B18868B0F9160070470020FCE7B4
:105AD0002DE9F04F93B005468B4691469A461C9EA1
