:020000040800F2
:1000000058A20020DD0100087B3D00087F32000877
:10001000773D0008590A00087164000800000000DC
:100020000000000000000000000000004501000882
:100030005D0A00080000000089010008D34C000898
:10004000F7010008F7010008F7010008F7010008B0
:10005000F7010008F7010008F7010008F7010008A0
:10006000F7010008F7010008F7010008F701000890
:10007000F7010008F7010008F7010008F701000880
:10008000F7010008F7010008F7010008F701000870
:10009000F7010008F7010008F7010008F701000860
:1000A000F7010008F7010008F7010008F701000850
:1000B000F7010008F7010008F7010008F701000840
:1000C000F7010008F7010008F7010008F701000830
:1000D000F7010008F9630008F7010008F7010008BC
:1000E000F7010008F7010008F7010008F701000810
:1000F000F7010008F7010008F7010008F701000800
:10010000F7010008F7010008F7010008F7010008EF
:10011000F7010008F701000865500008F701000822
:10012000F7010008F7010008F7010008F7010008CF
:10013000DFF80CD000F0D0FB00480047E1140308C2
:1001400058A20020224B19680868B0E8F00F80F32D
:100150000988BFF36F8F4FF0000080F311884EF0D5
:100160000D0E70470000000006480068006880F32C
:10017000088862B661B6BFF34F8FBFF36F8F00DFA1
:1001800000BF00BF08ED00E0EFF30980BFF36F8F01
:100190000F4B1A6820E9F00F106008B54FF05000BF
:1001A00080F31188BFF34F8FBFF36F8F38F046FC99
:1001B0004FF0000080F31188BDE808401968086816
:1001C000B0E8F00F80F30988BFF36F8F704700BF6E
:1001D000A4000020EFF30580704700000648804728
:1001E00006480047FEE7FEE7FEE7FEE7FEE7FEE71C
:1001F000FEE7FEE7FEE7FEE7514D0008310100088B
:100200002DE9F05F0546002092469B46884606464B
:10021000814640241BE0284641464746224600F0DE
:1002200020F853465A46C01A914110D31146184639
:10023000224600F05DFA2D1A67EB01084F46224670
:100240000120002100F054FA17EB00094E41201E56
:10025000A4F10104DFDC484631462A464346BDE8A6
:10026000F09F202A04DB203A21FA02F00021704797
:1002700021FA02F3D040C2F120029140084319460E
:10028000704740EA01039B0703D009E008C9121F29
:1002900008C0042AFAD203E011F8013B00F8013B40
:1002A000521EF9D27047D2B201E000F8012B491E6C
:1002B000FBD270470022F6E710B513460A46044603
:1002C0001946FFF7F0FF204610BD421E12F8013F0D
:1002D000002BFBD111F8013B02F8013B002BF9D1B7
:1002E0007047421C10F8011B0029FBD1801A70478F
:1002F00010B5002200E0521C835C8C5CA34201D14B
:10030000002BF8D1D8B2E1B2401A10BD034611F863
:10031000012B00F8012B002AF9D118467047F0B4E0
:1003200080EA0102D40F4200B2EB410F02D2024632
:10033000084611464A0042D0C30DDDB2C1F3C75290
:10034000AD1A202D35DAC1F3160141F4000204B1D3
:100350005242C5F1200602FA06F12A411044B3EBDD
:10036000D05F23D0C4B1012DA0EBC35009DCF0BC99
:100370004FF0004202EAC352DBB200F5000000F089
:10038000CFB9400000F1807000EBC350A0F1807045
:1003900040EAD170490009E0490841EAC071A0EB88
:1003A000C35000F50000400800EBC350F0BC00F063
:1003B000AEB96142012202EB4101001BF6E7F0BC3D
:1003C000704781F00041AAE780F00040A7E780EA8B
:1003D000010210B502F00043400022D04A001FD0B5
:1003E000010E01EB1261C0F35600C2F3560240F455
:1003F000000042F40002A0FB022000047F39140434
:1004000000D0401C50EA124001D44000491EC2B244
:100410000C0604EBD010401C4008802A02D003E0F8
:10042000002010BD20F00100002900DA0020184350
:1004300010BD30B480EA010202F0004530F0004205
:1004400021F0004013D090B1C30DD40DC2F31601BA
:10045000C0F31600E41A41F4000140F400027D34B8
:10046000914201D3641C00E04900002C02DA30BC48
:10047000002070474FF400000023914201D3891AF5
:10048000034340084FEA4101F7D151B1914202D1F3
:100490004FF0004105E002D24FF0010101E06FF0A2
:1004A000010103EBC450284430BC00F030B92DE901
:1004B000FE4F81EA030404F0004421F0004100945F
:1004C0004FF0000B23F0004350EA01045ED052EAE3
:1004D00003045BD0C3F30A54C1F30A552C44A4F2BD
:1004E000F3340194A0FB0254C1F3130141F48011D1
:1004F000C3F3130343F4801301FB024400FB034ED8
:10050000840A970A44EA815447EA8357A4FB0768A0
:1005100002958D0A05FB07854FEA932C04FB0C54CA
:100520002705029D4FEA065847EA1637B5EB08053E
:100530006EEB070C870E920E47EA811742EA831290
:10054000A7FB0201B6EB0B0164EB00042B0D43EAA1
:100550000C335E1844EB1C50DA465146E7FB0201AF
:10056000C5F313044FEA0B3343EA14534FEA043242
:10057000019C43EA0603A4F10C040294009CCDE91B
:1005800000B400F00AF903B0BDE8F08F0020014686
:10059000F9E7C10F80EAE0700844CA0796230021FA
:1005A00000F0BEB896230022114600F0B9B80EB58F
:1005B00040F2334102910021CDE900110A460B4679
:1005C00000F0EBF803B000BD00F0004220F0004066
:1005D000C10DC0F3160040F400007F2901DA0020AD
:1005E0007047962903DCC1F19601C84001E09639B5
:1005F0008840002AF4D04042704720F00040C10DEE
:10060000C0F3160040F400007F2901DA0020704793
:10061000962903DCC1F19601C8407047963988409D
:100620007047C1F30A5210B5C1F3130140F2FF3312
:1006300041F480119A4201DA002010BD40F23343A8
:100640009A42A2F2334203DC5242FFF70AFE10BD87
:10065000904010BD00F0004230F000400AD0C10DC3
:1006600001F56071C0F3160042EA0151C20840076B
:1006700011437047002001467047000030B5041E4A
:1006800071F1000404DB4FF00044404264EB0101CF
:10069000141E73F1000405DB1C464FF00043524268
:1006A00063EB04038B4208BF824230BD30B5041EA9
:1006B00071F1000404DB4FF00044404264EB01019F
:1006C000141E73F1000405DB1C464FF00043524238
:1006D00063EB0403994208BF904230BD002801DB60
:1006E000C0F10040002901DBC1F1004181427047A7
:1006F000202A04DB203A00FA02F1002070479140E2
:10070000C2F1200320FA03F31943904070470029F7
:10071000A8BF7047401C490008BF20F00100704787
:1007200010B4B0FA80FC00FA0CF050EA010404BFE7
:1007300010BC704749B1CCF1200421FA04F411FA3D
:100740000CF118BF012121430843A3EB0C01CB1D81
:100750004FEA00614FEA102042BF002010BC7047F2
:1007600000EBC35010440029A4BF10BC7047401CCC
:10077000490008BF20F0010010BC704710B5141EDE
:1007800073F1000408DA401C41F1000192185B414A
:100790001A4301D120F0010010BD2DE9F04D924621
:1007A0009B4611B1B1FA81F202E0B0FA80F2203238
:1007B0009046FFF79DFF04460F4640EA0A0041EAD3
:1007C0000B0153465A46084313D0114653EA010021
:1007D00019D0C8F140025046FFF743FD05460E46CA
:1007E000504659464246FFF783FF084305D0012093
:1007F00004E020463946BDE8F08D0020054346EA76
:10080000E0762C4337430A986305E40AA0EB08001E
:100810000022FD0A44EA47540A3002D5002001466E
:10082000E9E7010510196941DDE908450019694149
:10083000BDE8F04DA2E72DE9F04D00231A461B1A42
:100840008A4103DB00200146BDE8F08DC1F30A5266
:10085000C1F3130141F480154FF0000BD10702D111
:1008600000186D41521E0027044640F2FF11384621
:1008700001EB620A3E468046024600204FF480119A
:10088000FFF7EFFCC2197141BB1846EB0100B4EB56
:10089000030C75EB000C04D3E41A65EB0005174656
:1008A0000E46241908F101006D4180463428E3DD2D
:1008B000F91946EB0600091BA84103D24FF0FF329D
:1008C000134601E0002213461BEB070046EB0A51DA
:1008D000BDE8F04DFFF752BF064C074D06E0E0685B
:1008E00040F0010394E8070098471034AC42F6D377
:1008F000FFF722FCB8260408D826040870B58C1827
:1009000010F8015B15F0070301D110F8013B2A1123
:1009100006D110F8012B03E010F8016B01F8016B10
:100920005B1EF9D12B0705D40023521E0DD401F80C
:10093000013BFAE710F8013BCB1A921C03E013F8D5
:10094000015B01F8015B521EF9D5A142D8D300200A
:1009500070BD10B502F0B2FC10BD2DE9F0410746A4
:100960000C460026002509E036023919491B491EAC
:1009700088B200F008F80644681CC5B2A542F3DB53
:100980003046BDE8F08170B50446002602F04EFD09
:100990002546E11704EB11610912A02202EB410187
:1009A000C8B202F011FD02F079FDE11704EB11610C
:1009B0000912A4EB0121C8B202F006FD02F06EFD9F
:1009C00002F034FDA12002F0FFFC02F067FD0020E0
:1009D00002F0CEFC064602F045FD304670BD2DE922
:1009E000F04105460E461746002409E0E20026FACB
:1009F00002F2D1B22A1990B200F006F8601CC4B21B
:100A0000BC42F3DBBDE8F08170B504460E4602F04F
:100A10000DFD2546E11704EB11610912A02202EB3E
:100A20004101C8B202F0D0FC02F038FDE11704EB3E
:100A300011610912A4EB0121C8B202F0C5FC02F059
:100A40002DFD304602F0C0FC02F028FD02F00AFD48
:100A50000A200BF062F970BD00BFFEE7704700008E
:100A600010B50446240300F065F900F0FDF80020FD
:100A70000F490860202004F08DF80E4800884EF6DB
:100A80001871884202D1200E04F084F8C4F30740A4
:100A900004F080F8C4F3072004F07CF8E0B204F01E
:100AA00079F801200249086000F0DEF810BD00006E
:100AB000B08121420E00002010B586B000BF214851
:100AC000806940F008001F4988610846806900F08D
:100AD0000800019000BF00BF88140290012003901D
:100AE00004900320059002A9174800F049FC01205A
:100AF0001649086004F022F8002004F05BF800F0CA
:100B000067F8134908800846018812A005F0B2FC76
:100B10000F4800884EF61871884210D1032000F06B
:100B20007BF8044604F0010048B90020074908603A
:100B3000B72004F02FF801200B49C1F8B00106B02E
:100B400010BD000000100240000C0140B0812142A5
:100B50000E000020454E32355158585F54595045CB
:100B60003D25580D0A000000008021422DE9F0418A
:100B700006460C461746002013490860032004F07F
:100B800009F8124800884EF61871884202D1200EEA
:100B900004F000F8C4F3074003F0FCFFC4F307209F
:100BA00003F0F8FFE0B203F0F5FF002505E0FF20B9
:100BB00003F0F0FF7055681C85B2BD42F7DB0120E1
:100BC00001490860BDE8F081B08121420E0000209B
:100BD00010B5002400200E490860902003F0DAFFD1
:100BE000002003F0D7FF002003F0D4FF002003F023
:100BF000D1FFFF2003F0CEFF44EA0024FF2003F0E2
:100C0000C9FF044301200349C1F8B001204610BDCB
:100C1000B08121420080214270B5044600250026A3
:100C2000012C04D0022C04D0032C06D103E00526AD
:100C300005E0352603E0152601E0052600BF00BFCC
:100C4000002007490860304603F0A4FFFF2003F0AE
:100C5000A1FF054601200349C1F8B001284670BD37
:100C6000B08121420080214210B500BF0120FFF772
:100C7000D3FF00F001000028F8D110BD2DE9F05F8E
:100C800081460F461646DFF8A8B04FEA1738C7F37B
:100C90000B0ACAF58054A64200DC344644E04FEA11
:100CA00008314FF480525846FFF760FF002508E0F6
:100CB0000AEB05001BF80000FF2800D003E0681CC9
:100CC00085B2A542F4DB00BFA54216DA4046FFF725
:100CD000C7FE002507E019F8050005EB0A010BF82F
:100CE0000100681C85B2A542F5DB4FEA08314FF4DC
:100CF0008052584600F02EF804E022463946484615
:100D000000F028F8A64200D10FE008F101084FF0EA
:100D1000000AA1442744301B86B2B6F5805F02DD8D
:100D20004FF4805400E03446B9E700BFBDE8F09FBF
:100D30003A03002010B5002004490860062003F0A3
:100D400029FF01200249C1F8B00110BDB081214244
:100D5000008021422DE9F04107460E461446F0B2CC
:100D6000C0F58075AC4200DC254612E02A463146CB
:100D7000384600F013F8AC4200D10BE02F442E446B
:100D8000601B84B2B4F5807F02DD4FF4807500E013
:100D90002546EBE700BFBDE8F08100002DE9F041FA
:100DA00006460C461746FFF7C5FF002014490860A9
:100DB000022003F0EFFE134800884EF618718842B7
:100DC00002D1200E03F0E6FEC4F3074003F0E2FE7A
:100DD000C4F3072003F0DEFEE0B203F0DBFE0025E3
:100DE00004E0705D03F0D6FE681C85B2BD42F8DBFE
:100DF000012003490860FFF737FFBDE8F0810000DC
:100E0000B08121420E00002010B500240EE04FF406
:100E10000D71002031F06CFC184941F8240008469F
:100E200050F8240000B903E0601CC4B2042CEEDBCF
:100E300000BF4FF41471002031F05AFC10490860D3
:100E40004FF41471002031F053FC0E4908604FF448
:100E50000071002031F04CFC0B490860042C0AD1D1
:100E60000748006838B10748006820B108460068A4
:100E700008B1002010BD0120FCE70000D06D00206B
:100E80008C000020900000209C00002070B50446DB
:100E9000B3F5804F13D1D1E9000540EA05108D6804
:100EA00040EA05208D6928438D8940EA054054F8C1
:100EB0002250064E3540284344F8220003E06FF0EC
:100EC000704044F82200002070BD00000000F0CF08
:100ED00030B50246086852F8200020F001000C6886
:100EE00042F824008868082801D1402300E000234C
:100EF000486818438C682043CC6820430C69204321
:100F00004C6920438C692043CC6920430C6A204300
:100F10004C6A20438C6A2043CC6A20430C6B2043EC
:100F20004C6B20430C6852F82440044D2C40204365
:100F30000C6842F82400002030BD00008000F0FF63
:100F400010B50346D1E9000440EA04108C6840EA79
:100F500004208C8940EA0444088A401E44EA005474
:100F6000087D801E44EA00608C692043541C53F8BD
:100F7000244004F040442043541C43F82400002043
:100F800010BD000000B58DB000BF4648406940F478
:100F90008070444948610846406900F480700190BF
:100FA00000BF00BF00BF0846806940F02000886194
:100FB0000846806900F02000019000BF00BF00BF1C
:100FC0000846806940F0400088610846806900F06A
:100FD0004000019000BF00BF00BF0846806940F09C
:100FE000800088610846806900F08000019000BFA1
:100FF00000BF00BF0846806940F4807088610846E1
:10100000806900F48070019000BF00BF4FF633701C
:10101000099002200A9001200B9003200C9009A94E
:10102000214800F0ADF94FF68370099009A91F48D7
:1010300000F0A6F94FF23F00099009A91C4800F002
:101040009FF940F23F40099009A91A4800F098F929
:101050004FF0204018490860184848600420886014
:1010600000211548C16001611021416100218161A9
:10107000C16141624FF4805181620021C16201630C
:1010800041638163002002900390082004900020B7
:101090000590089002AA02A9074801F054FD0DB07E
:1010A00000BD000000100240001401400018014083
:1010B000001C014000200140C0160020040100A0D7
:1010C0002DE9F05F8246884614462046E21704EB7D
:1010D0005272D2102146E31704EB5373DB10A4EBDA
:1010E000C3030BB1012300E000231A44624302F062
:1010F000FF099AF800600AF1010082460578812E06
:1011000005DB402D03DBFF2D01D0FF2E0DD14FF06D
:10111000000B06E0002008F8010B0BF1010000F0C5
:10112000FF0BCB45F6DBBDE8F09F7F2D03DAA5F181
:101130004000C5B202E0A5F14100C5B2A6F18100B0
:10114000C6B2BE2000FB065000FB09F70C2C06D0EF
:10115000102C0DD0182C14D0202C24D11AE01348B8
:10116000D0F80900C1194A464046FFF7FFFC1AE0D3
:101170000E48D0F81100C1194A464046FFF7F6FC68
:1011800011E00A48D0F81900C1194A464046FFF755
:10119000EDFC08E00548D0F82100C1194A46404658
:1011A000FFF7E4FC00BF00BF00BFBCE7A06D00205C
:1011B00070B50446002594F82100022803D00420CD
:1011C000A0630125C1E02068006820F00E002168BE
:1011D00008602068006820F00100216808605C4910
:1011E0002068884252D95A4978392068884201D10A
:1011F000012047E0564964392068884201D1102017
:1012000040E0534950392068884201D1801539E0C7
:101210004F493C392068884201D1801432E04C4962
:1012200028392068884202D14FF480302AE04849AA
:1012300014392068884202D14FF4801022E04449DA
:101240002068884201D140041CE04249206888425D
:1012500001D1012016E03F4914312068884201D1B4
:1012600010200FE03B4928312068884201D18015C9
:1012700008E038493C312068884201D1801401E0FF
:101280004FF480303349091F086051E03049783904
:101290002068884201D1012047E02D496439206847
:1012A000884201D1102040E0294950392068884205
:1012B00001D1801539E026493C392068884201D1A6
:1012C000801432E0224928392068884202D14FF444
:1012D00080302AE01E4914392068884202D14FF438
:1012E000801022E01A492068884201D140041CE0A5
:1012F00018492068884201D1012016E015491431AF
:101300002068884201D110200FE01249283120685E
:10131000884201D1801508E00E493C31206888429E
:1013200001D1801401E04FF48030094980394860D0
:10133000012084F8210000BF002084F8200000BFB5
:10134000606B10B12046616B8847284670BD000075
:10135000800002400804024070B5044600F0B6F96F
:1013600006462546681C10B104480078054400BFB5
:1013700000F0ACF9801BA842FAD370BD0C0000202D
:101380002DE9F847024600239C467BE14FF0010817
:1013900008FA03F4D1F8008008EA0400A0427DD1E5
:1013A000DFF8F4A2D1F80480A8EB0A09D0453AD0BE
:1013B00014DCB8F1030F50D009DCB8F1000F31D0C4
:1013C000B8F1010F1CD0B8F1020F49D120E0B8F1FB
:1013D000110F18D0B8F1120F42D11EE0B9F5881FD5
:1013E00025D006DCB9F5803F20D0B9F5801F37D174
:1013F0001AE0B9F5001F18D0B9F5041F30D117E075
:10140000D1F80CC02DE0D1F80C8008F1040C28E0D4
:10141000D1F80C8008F1080C23E0D1F80C8008F119
:101420000C0C1EE000BF00BF00BF00BF00BF00BF2C
:10143000D1F80880B8F1000F02D14FF0040C0BE096
:10144000D1F80880B8F1010F03D14FF0080C1461F6
:1014500002E04FF0080C546103E04FF0000C00E094
:1014600000BF00BFFF2801D8904601E002F1040848
:101470004646FF2802D84FEA830803E0A3F1080894
:101480004FEA88084746D6F800804FF00F0909FA5E
:1014900007F928EA09080CFA07F900E07AE048EAB7
:1014A0000908C6F80080D1F8048008F08058B8F127
:1014B000805F6FD100BFDFF8E481D8F8188048F072
:1014C0000108DFF8D891C9F81880C846D8F8188004
:1014D00008F00108CDF8008000BF00BF4FEAB9381E
:1014E0004FEA930958F829504FEA83784FEA187960
:1014F0004FF00F0808FA09F825EA0805DFF8A0817F
:10150000424502D14FF0000824E0DFF898814245BF
:1015100002D14FF001081DE0DFF88C81424502D175
:101520004FF0020816E0DFF88481424502D14FF007
:1015300003080FE0DFF87881424502D14FF004083C
:1015400008E0DFF87081424502D14FF0050801E064
:101550004FF006084FEA83794FEA197908FA09F83B
:1015600048EA0505DFF850814FEA930948F8295009
:10157000D1F8048008F48038B8F5803F0BD1DFF84B
:101580003C81D8F8008048EA0008DFF83091C9F8BB
:1015900000800AE075E0DFF82481D8F8008028EAAE
:1015A0000008DFF81891C9F80080D1F8048008F429
:1015B0000038B8F5003F0ED1DFF8008108F10408CB
:1015C000D8F8008048EA0008DFF8F09009F1040933
:1015D000C9F800800DE0DFF8E48008F10408D8F8CD
:1015E000008028EA0008DFF8D49009F10409C9F85E
:1015F0000080D1F8048008F48018B8F5801F0ED15F
:10160000DFF8B88008F10808D8F8008048EA000838
:10161000DFF8A89009F10809C9F800800DE0DFF8AB
:101620009C8008F10808D8F8008028EA0008DFF854
:101630008C9009F10809C9F80080D1F8048008F4F9
:101640000018B8F5001F0ED1DFF8708008F10C0803
:10165000D8F8008048EA0008DFF8609009F10C092A
:10166000C9F800800DE0DFF8548008F10C08D8F8C4
:10167000008028EA0008DFF8449009F10C09C9F855
:1016800000805B1CD1F8008028FA03F8B8F1000F45
:101690007FF47CAEBDE8F887000011100010024016
:1016A00000080140000C01400010014000140140FE
:1016B00000180140001C01400800014000040140E6
:1016C0000AB1016101E00B04036170470148006841
:1016D00070470000040000200348006803490978AF
:1016E0000844014908607047040000200C000020F5
:1016F00010B50848006840F0100006490860052051
:1017000000F080F80F2000F007F800F02BF8002020
:1017100010BD00000020024070B504460E4800785D
:101720004FF47A71B1FBF0F00C490968B1FBF0F5A8
:10173000284601F0A9FA08B1012070BD102C07D28B
:1017400000222146501E00F01EF80548046001E00A
:101750000120F2E70020F0E70C000020000000204C
:1017600008000020704701460846002809DB00F009
:101770001F0301229A4043099B0003F1E023C3F8B1
:10178000002100BF70472DE9F05F80460D461646E8
:10179000002704F093FE074639462A46334601F0F7
:1017A0000700C0F1070ABAF1040F02D94FF0040A8A
:1017B00001E0C0F1070AD14600F1040ABAF1070FAF
:1017C00002D24FF0000A01E0A0F1030AD4464FF024
:1017D000010A0AFA09FAAAF1010A0AEA020A0AFA4D
:1017E0000CFA4FF0010B0BFA0CFBABF1010B0BEAFF
:1017F000030B4AEA0B042146404604F067FEBDE8AD
:10180000F09F000000BF00F00702064B19684FF67A
:10181000FF031940044B0B4343EA0221014B1960BB
:1018200000BF70470CED00E00000FA0570B50446FB
:101830000D460CB9012070BD5A48006800F0070041
:10184000A8420ED25748006820F0070028435549A7
:1018500008600846006800F00700A84201D0012097
:10186000E9E7207800F0020002281DD1207800F07E
:101870000400042805D14C48406840F4E0604A491F
:101880004860207800F00800082805D146484068E4
:1018900040F46050444948604348406820F0F000FC
:1018A000A168084340494860207800F0010078B3FF
:1018B0006068012806D13C48006800F4003090B907
:1018C0000120B8E76068022806D13748006800F0B8
:1018D000007040B90120AEE73348006800F0020014
:1018E00008B90120A7E73048406820F0030061688C
:1018F00008432D494860FFF7E9FE064609E0FFF777
:10190000E5FE801B41F28831884202D9032092E72C
:1019100007E02548406800F00C006168B0EB810FDB
:10192000EDD12048006800F00700A8420ED91D48FC
:10193000006820F0070028431A490860084600683C
:1019400000F00700A84201D0012074E7207800F0E1
:101950000400042807D11448406820F4E060E168DE
:10196000084311494860207800F00800082808D191
:101970000D48406820F46050216940EAC1000A49DE
:10198000486000F03FF808494968C1F30311074A6D
:10199000515CC8400649086006480068FFF7BCFE75
:1019A000002048E70020024000100240D6910308C2
:1019B0000000002008000020014800687047000077
:1019C0000000002000B5FFF7F7FF04494968C1F3A4
:1019D0000221034A515CC84000BD000000100240D3
:1019E000E691030800B5FFF7E7FF04494968C1F332
:1019F000C221034A515CC84000BD000000100240F3
:101A0000E6910308F0B585B00FF26C0C9CE8E0108D
:101A100001A8A0E8E0101CA52D6800950021002277
:101A2000002300240020194D696801F00C05F5B170
:101A3000042D02D0082D19D101E0154819E001AD9F
:101A4000C1F38346AC5D01F4803555B10F4D6D682F
:101A5000C5F340451DF805200D4D6543B5FBF2F378
:101A600002E00C4D04FB05F3184602E000BF0848F5
:101A700000BF00BF05B0F0BD02030405060708095A
:101A80000A0B0C0D0E0F1010010200000010024096
:101A900000127A0000093D00F8B504460CB9012097
:101AA000F8BD207800F00100002878D0F8484068A0
:101AB00000F00C0004280CD0F548406800F00C0041
:101AC000082811D1F248406800F48030B0F5803F1A
:101AD0000AD1EF48006800F4003000285FD0606849
:101AE00000285CD10120DBE700BF6068B0F5803FD3
:101AF00006D1E748006840F48030E549086028E0F6
:101B0000606858B9E248006820F48030E049086015
:101B10000846006820F4802008601AE06068B0F58C
:101B2000A02F0BD1DA48006840F48020D849086023
:101B30000846006840F4803008600AE0D448006835
:101B400020F48030D24908600846006820F48020E4
:101B5000086000BF606888B1FFF7B8FD054606E081
:101B6000FFF7B4FD401B642801D9032098E7C8485B
:101B7000006800F400300028F2D010E0FFF7A6FD66
:101B8000054606E0FFF7A2FD401B642801D90320AB
:101B900086E7BF48006800F400300028F2D12078C2
:101BA00000F00200022857D1B948406800F00C004C
:101BB00050B1B748406800F00C00082818D1B4486C
:101BC000406800F4803098B9B148006800F0020025
:101BD00020B12069012801D0012061E7AC480068EC
:101BE00020F0F800616940EAC100A949086033E0CB
:101BF0002069E8B10120A7490860FFF767FD0546A5
:101C000006E0FFF763FD401B022801D9032047E7E8
:101C10009F48006800F002000028F2D09C4800684D
:101C200020F0F800616940EAC1009949086013E0BA
:101C3000002098490860FFF749FD054606E0FFF7D8
:101C400045FD401B022801D9032029E79048006880
:101C500000F002000028F2D1207800F008000828E7
:101C60002DD1A069B8B101208B490860FFF72EFD86
:101C7000054606E0FFF72AFD401B022801D9032094
:101C80000EE78348406A00F002000028F2D00120ED
:101C900002F074F813E000207F490860FFF716FD9A
:101CA000054606E0FFF712FD401B022801D903207C
:101CB000F6E67748406A00F002000028F2D120786A
:101CC00000F00400042873D100277148C06900F0B7
:101CD000805070B900BF6E48C06940F080506C49B8
:101CE000C8610846C06900F08050009000BF00BF86
:101CF00001276A48006800F48070B0B9674800683E
:101D000040F4807065490860FFF7E0FC054606E096
:101D1000FFF7DCFC401B642801D90320C0E65F48C4
:101D2000006800F480700028F2D000BFE06801284D
:101D300006D15748006A40F001005549086227E083
:101D4000E06858B95248006A20F001005049086222
:101D50000846006A20F00400086219E0E0680528DF
:101D60000BD14B48006A40F004004949086208461C
:101D7000006A40F0010008620AE04548006A20F06D
:101D80000100434908620846006A20F00400086226
:101D900000BFE068A0B1FFF799FC054609E0FFF736
:101DA00095FC401B41F28831884202D9032077E636
:101DB00022E03748006A00F002000028EFD012E06D
:101DC000FFF784FC054608E0FFF780FC401B41F26A
:101DD0008831884201D9032062E62D48006A00F06C
:101DE00002000028F0D1012F05D12948C06920F058
:101DF00080502749C86100BFE069C8B324484068E3
:101E000000F00C00082860D0E069022848D10020CA
:101E100020490866FFF75AFC054606E0FFF756FC26
:101E2000401B022801D903203AE61948006800F057
:101E300000700028F2D1206AB0F5803F07D1144825
:101E4000406820F40030A168084311494860D4E993
:101E5000080108430E49496821F4741108430C49EC
:101E6000486001200B490866FFF730FC054607E093
:101E70003DE0FFF72BFC401B022801D903200FE6B1
:101E80000348006800F000700028F2D02FE0000046
:101E900000100240000042428004424200700040B4
:101EA000002014490866FFF711FC054606E0FFF71D
:101EB0000DFC401B022801D90320F1E50E48006803
:101EC00000F000700028F2D111E0E069012800D193
:101ED000E6E50948466806F48031206A814204D16B
:101EE00006F47011606A814201D00120D8E500201B
:101EF000D6E50000000042420010024070B58AB0F2
:101F000004460D46032084F83400606C032820D07A
:101F1000B5F5805F04D1A06B40F08050A0631CE059
:101F2000B5F5006F07D1204602F0AAFD0646A06B6A
:101F30003043A06311E03DB9204602F06DFD064636
:101F4000A06B3043A06308E0A06B40F00060A0638A
:101F500003E0A06B40F08050A063A06B38B1104844
:101F600021688863012084F834000AB070BD60687D
:101F70000490A0680590E068069007956069089055
:101F8000A069099007A807C88DE80700206804A980
:101F90000EC901F04CFF012084F834000020E4E772
:101FA000FF05400010B50246506E800F0870506E5D
:101FB000C0F383604870506EC0F301608870506E4B
:101FC000000CC870B2F86400000A087192F864004E
:101FD0004871906E000DC880906EC0F30340087287
:101FE0006820805AC0F3C03048726820805AC0F31D
:101FF000803088726820805AC0F34030C8726820F0
:10200000805AC0F30030087300204873506C0028D9
:1020100036D16820805A8005030DD06E43EA907057
:102020000861D06EC0F3C2600875D06EC0F3026064
:102030004875D06EC0F342508875D06EC0F38240B0
:10204000C875D06EC0F3C23008760869401C506570
:102050000B7E506D03F007039B1C01249C406043E2
:102060005065087A00F00F03012098409065D2E98E
:1020700015035B0A5843D0654FF40073136621E0E3
:10208000506C012813D16820805C8006830AD06ED2
:1020900043EA104008610869401C83025365536D90
:1020A000D3654FF400739365936D13660AE02E4871
:1020B00013689863906B40F080509063012082F821
:1020C000340010BD6C20805AC0F3803001F8190F25
:1020D0006C20805AC0F3C61048706C20805C00F001
:1020E0007F008870106FC00FC870106FC0F3417010
:1020F0000871106FC0F382604871106FC0F3835095
:102100008871106FC0F34050C87100200872106FC2
:10211000C0F3004048727020805AC0F3C03088720B
:102120007020805AC0F38030C8727020805AC0F38B
:10213000403008737020805AC0F30030487370201C
:10214000805AC0F3812088737020805AC0F3012028
:10215000C8737020805CC0F3460008740120487486
:1021600019390020ADE70000FF0540000246506C21
:102170000860906C4860D06C8860106DC860506DCD
:102180000861906D4861D06D8861106EC861002053
:102190007047F8B50446002000906946204602F0DA
:1021A00023FC054615B1A06B2843A0630098C0F33B
:1021B00043263046F8BD10B504460CB9012010BDC9
:1021C00094F8340020B900202077204600F054F81D
:1021D000032084F83400204600F00CF808B10120F8
:1021E000EDE70020A0632063012084F83400002084
:1021F000E5E7000070B58AB0044600200490059021
:102200000690079008907620099007A807C88DE8E7
:102210000700206804A90EC901F009FE064616B1A0
:1022200001200AB070BD002012490860206801F04A
:1022300018FE01200F49A039C1F8A000204602F085
:1022400043FB05463DB1012084F83400A06B2843D0
:10225000A0630120E5E7204602F0B4FA05463DB14F
:10226000012084F83400A06B2843A0630120D8E744
:102270000020D6E7A000304210B586B0044600BF6B
:102280002448406940F4806022494861084640691A
:1022900000F48060019000BF00BF00BF08464069A5
:1022A00040F0020048610846406900F002000190D9
:1022B00000BF00BF00BF0846806940F01000886181
:1022C0000846806900F01000019000BF00BF00BF09
:1022D0000846806940F0200088610846806900F067
:1022E0002000019000BF00BF4FF4F8500290022080
:1022F0000390012004900320059002A90648FFF7EF
:102300003FF80420029002A90448FFF739F806B00C
:1023100010BD0000001002400010014000140140F8
:102320002DE9F04F87B004468A4690461E46DDF8F8
:1023300040900025FFF7CAF90090AB465746BAF126
:10234000000F07D1A06B40F00060A063012007B030
:10235000BDE8F08F94F8340001287DD10020A063FF
:1023600008EB0601E06D814205D9A06B40F00070DA
:10237000A0630120EBE7032084F8340000202168EB
:10238000C862606C012801D04FEA48284FF4007100
:10239000206801F0C7FD05464DB17048216888638B
:1023A000A06B2843A063012084F83400CFE74FF0EE
:1023B000FF30019070020290902003900220049060
:1023C000002005900120069001A9206801F00AFD77
:1023D000012E07D9022020634146206801F00AFE41
:1023E000054606E0012020634146206801F01EFEFC
:1023F00005464DB1594821688863A06B2843A06306
:10240000012084F83400A2E729E02068406B00F442
:10241000004068B14FF0000B06E0206801F02AFD93
:1024200047F82B000BF1010BBBF1080FF5D3203758
:10243000B9F1000F05D0FFF749F90099401A484556
:102440000DD3464821688863A06B40F00040A0632C
:10245000012084F8340000E079E0032077E7206869
:10246000406B40F22A3108400028CED02068406BF3
:1024700000F4807098B1012E11D9606C03280ED041
:10248000206801F093FE05464DB134482168886309
:10249000A06B2843A063012084F8340057E720682C
:1024A000406B00F0080050B12C4821688863A06B95
:1024B00040F00800A063012084F8340047E720685A
:1024C000406B00F0020050B1244821688863A06B83
:1024D00040F00200A063012084F8340037E7206850
:1024E000406B00F0200050B11C4821688863A06B4D
:1024F00040F02000A063012084F8340027E718E0B2
:10250000206801F0B7FC38603F1DB9F1000F05D01D
:10251000FFF7DCF80099401A48450AD30F482168B4
:102520008863A06B40F00040A063012084F8340071
:102530000DE72068406B00F400100028E0D1074848
:1025400021688863012084F834000020FFE6A06B36
:1025500040F00050A0630120F9E60000FF054000B4
:102560002DE9F04F87B00446884617461E46DDF831
:1025700040B00025FFF7AAF80090A946C246B8F17E
:10258000000F07D1A06B40F00060A063012007B0EE
:10259000BDE8F08F94F8340001287BD10020A063BF
:1025A000B919E06D814205D9A06B40F00070A063BD
:1025B0000120ECE7032084F8340000202168C86281
:1025C000606C012800D07F024FF40071206801F098
:1025D000A9FC05464DB15F4821688863A06B28437C
:1025E000A063012084F83400D1E7012E07D9202010
:1025F00020633946206801F0F7FD054606E010200B
:1026000020633946206801F00BFE05464DB1514864
:1026100021688863A06B2843A063012084F83400FC
:10262000B5E74FF0FF3001907002029090200390C8
:102630000020049005900120069001A9206801F077
:10264000D1FB28E02068406B00F4804070B14FF06F
:10265000000906E00AEB8901206801F023FC09F17A
:102660000109B9F1080FF5D30AF1200ABBF1000FF7
:1026700005D0FFF72BF80099401A58450BD3354881
:1026800021688863A06B2843A063012084F834008C
:1026900003207CE757E02068406B40F21A31084085
:1026A0000028CFD02068406B00F4807098B1012ED4
:1026B00011D9606C03280ED0206801F077FD054623
:1026C0004DB1244821688863A06B2843A063012092
:1026D00084F834005BE72068406B00F0080050B1DC
:1026E0001C4821688863A06B40F00800A0630120AB
:1026F00084F834004BE72068406B00F0020050B1D2
:10270000144821688863A06B40F00200A063012098
:1027100084F834003BE72068406B00F0100050B1B3
:102720000C4821688863A06B40F01000A063012072
:1027300084F834002BE7074821688863012084F877
:102740003400002023E7A06B40F00050A06301207C
:102750001DE70000FF05400010B504460CB901203C
:1027600010BD606A00B900BFA06AB0F5005F00D17B
:1027700000BF94F8510028B9002084F8500020468A
:1027800000F038F8022084F851002068006820F03A
:10279000400021680860D4E901010843E16808436A
:1027A0002169084361690843218B01F400710843E2
:1027B000E1690843216A0843A16A08432168086067
:1027C0000421A06901EA104021684860A06AB0F5C0
:1027D000005F02D12168E06A08612068C06920F4C6
:1027E00000602168C86100206065012084F8510004
:1027F0000020B5E710B586B0044600BF14488069D4
:1028000040F00800124988610846806900F008001D
:10281000019000BF00BF00BF0846C06940F480407F
:10282000C8610846C06900F48040019000BF00BF45
:102830004FF4604002900220039001200490032096
:10284000059002A90348FEF79BFD06B010BD0000ED
:1028500000100240000C01402DE9FF5F044688464D
:1028600091461D460E9E012002900020019000BF5F
:1028700094F85000012803D1022004B0BDE8F09F75
:10288000012084F8500000BFFEF720FF074694F8AF
:1028900051B060680390AA46BBF1010F0BD00398BA
:1028A000B0F5827F04D1A06810B9BBF1040F02D04B
:1028B000022001903DE1B8F1000F03D0B9F1000F03
:1028C00000D015B90120019033E194F8510004289B
:1028D00002D0052084F8510000206065C4F83890CB
:1028E000E587A587C4F83080E586A5862064606406
:1028F000A06AB0F5005F0DD100BF2068006820F429
:102900000050216808602068006840F40050216889
:10291000086000BF2068006800F04000402805D033
:102920002068006840F0400021680860E068B0F569
:10293000006F56D1606810B1BAF1010F09D1206B58
:1029400000882168C860206B801C2063E08E401ED8
:10295000E0863FE02068806800F0020002281CD179
:10296000E08ED0B10298012817D1206B0088216831
:10297000C860206B801C2063E08E401EE086002033
:102980000290E08E48B9A06AB0F5005F05D12068DA
:10299000006840F48050216808602068806800F07A
:1029A000010068B1E08F58B12068C068A16B088051
:1029B000A06B801CA063E08F401EE0870120029086
:1029C000FEF784FEC01BB04204D3701C10B103207C
:1029D0000190AEE0E08E0028BCD1E08F0028B9D194
:1029E00056E0606810B1BAF1010F09D1206B007890
:1029F00021680873206B401C2063E08E401EE08637
:102A000040E02068806800F0020002281CD1E08EBF
:102A1000D0B10298012817D1206B00782168087383
:102A2000206B401C2063E08E401EE0860020029058
:102A3000E08E48B9A06AB0F5005F05D12068006853
:102A400040F48050216808602068806800F0010030
:102A500068B1E08F58B12068C068A16B0870A06BA6
:102A6000401CA063E08F401EE08701200290FEF72B
:102A70002DFEC01BB04201D3701C00B916B9032053
:102A8000019056E0E08E0028BBD1E08F0028B8D13D
:102A9000A06AB0F5005F10D13346012211462046EE
:102AA000009702F0C2F830B1606D40F0020060653E
:102AB000032001903DE02068C06820688068C0F372
:102AC0000010E8B1204602F0ADF8012814D1606D85
:102AD00040F00200606500BF2068006820F40050EC
:102AE000216808602068006840F400502168086090
:102AF00000BF0120019003E04FF6EF70216888606D
:102B00003A463146204602F079F820B10120019082
:102B1000202060650DE0A06850B900BF0020009043
:102B20002068C068009020688068009000BF00BFE7
:102B300000BF012084F8510000BF002084F850003D
:102B400000BF019899E670B504460E4615460CB9CB
:102B5000012070BD94F8410028B9002084F840009D
:102B6000204600F01FF804F108012068FEF7B0F9D4
:102B70003146A2682068FEF7E3F92946236BD4E9C1
:102B80000102FEF783F9A168206850F8210040F0A7
:102B90000100A268216841F82200012084F8410068
:102BA0000020D6E710B586B0044600BF284840692B
:102BB00040F48070264948610846406900F48070FE
:102BC000019000BF00BF00BF0846806940F02000B0
:102BD00088610846806900F02000019000BF00BFB6
:102BE00000BF0846806940F040008861084680695F
:102BF00000F04000019000BF00BF00BF08468069A0
:102C000040F4807088610846806900F4807001900B
:102C100000BF00BF4CF233700290022003900120ED
:102C200004900320059002A90A48FEF7A9FB4FF67D
:102C30008070029002A90848FEF7A2FB41F2010051
:102C4000029002A90548FEF79BFB06B010BD0000EC
:102C50000010024000140140001801400020014013
:102C6000042808D14FF0E021096941F004014FF038
:102C7000E022116107E04FF0E021096921F0040131
:102C80004FF0E0221161704770B504462546681E7A
:102C9000B0F1807F01D301200FE0681E4FF0E021EA
:102CA00048610F214FF0FF3003F010FC00204FF07F
:102CB000E021886107200861002070BD70477047DF
:102CC00010B504460CB9012010BD94F83D0028B998
:102CD000002084F83C00204600F00CF8022084F824
:102CE0003D00211D206802F0DBF9012084F83D0041
:102CF0000020E9E738B504460D492068884215D11F
:102D000000BF0C48C06940F010000A49C86108467D
:102D1000C06900F01000009000BF00BF0322114600
:102D20003620FEF730FD3620FEF71DFD38BD0000D1
:102D3000001000400010024001460868C06840F0E2
:102D400001000B68D8600868806800F00702062A56
:102D500005D00868006840F001000B68186000208A
:102D60007047704710B5044620680069C0F3400002
:102D7000D8B12068C068C0F34000B0B16FF0020065
:102D800021680861012020772068806900F0030035
:102D900018B12046FFF7E5FF05E0204600F0ADF84A
:102DA000204600F0ABF80020207720680069C0F3CF
:102DB0008000D8B12068C068C0F38000B0B16FF067
:102DC000040021680861022020772068806900F4EF
:102DD000407018B12046FFF7C4FF05E0204600F020
:102DE0008CF8204600F08AF80020207720680069DF
:102DF000C0F3C000D8B12068C068C0F3C000B0B153
:102E00006FF0080021680861042020772068C069FD
:102E100000F0030018B12046FFF7A3FF05E02046AD
:102E200000F06BF8204600F069F800202077206859
:102E30000069C0F30010D8B12068C068C0F300106A
:102E4000B0B16FF010002168086108202077206879
:102E5000C06900F4407018B12046FFF782FF05E01A
:102E6000204600F04AF8204600F048F8002020777D
:102E70002068006900F0010058B12068C06800F0C7
:102E8000010030B16FF0010021680861204600F0B8
:102E900037F820680069C0F3C01058B12068C068D6
:102EA000C0F3C01030B16FF0800021680861204687
:102EB000FFF704FF20680069C0F3801058B1206854
:102EC000C068C0F3801030B16FF040002168086125
:102ED000204600F023F820680069C0F3401058B184
:102EE0002068C068C0F3401030B16FF02000216846
:102EF00008612046FFF7E3FE10BD704770470000F1
:102F000010B504460448844204D101202DF036FC5B
:102F1000FEF7E2FB10BD000050170020704770471D
:102F200001460022002391F8392091F83A3042EA14
:102F3000030070472DE9F0470446206805682068C3
:102F4000C668206847694FF00008C14605F00F08C1
:102F5000B8F1000F0AD105F0200038B106F02000CA
:102F600020B1204603F0F0F8BDE8F087B8F1000F7B
:102F70006DD007F0010018B906F49070002866D0F3
:102F800005F0010030B106F4807018B1E06B40F03C
:102F90000100E06305F0040030B107F0010018B152
:102FA000E06B40F00200E06305F0020030B107F092
:102FB000010018B1E06B40F00400E06305F0080088
:102FC00030B107F0010018B1E06B40F00800E06399
:102FD000E06B68B305F0200028B106F0200010B1C6
:102FE000204603F0B1F820684069C0F38019E06B17
:102FF00000F0080010B9B9F1000F22D0204603F00C
:1030000083F82068406900F04000B0B12068406952
:1030100020F0400021684861606B50B11748616B37
:103020004863606BFEF7C4F810B1606B416B884772
:103030000CE02046FFF773FF08E02046FFF76FFF24
:1030400004E02046FFF76BFF0020E0638CE705F00B
:10305000800030B106F0800018B1204603F098F9E6
:1030600082E705F0400030B106F0400018B120467C
:1030700003F05AF878E700BF76E70000F560000833
:1030800010B504460CB9012010BDA06900B100E0E4
:1030900000BF94F8390028B9002084F83800204691
:1030A00000F028F8242084F839002068C06820F453
:1030B00000502168C860204603F09AF82068006933
:1030C00020F49040216808612068406920F02A00BF
:1030D000216848612068C06840F400502168C860D9
:1030E0000020E063202084F8390084F83A000020B2
:1030F000CAE7000010B586B004461F492068884220
:1031000037D100BF1D48806940F004001B49886129
:103110000846806900F00400019000BF00BF00BFB6
:103120000846806940F4804088610846806900F460
:103130008040019000BF00BF48150290022003901C
:10314000012004900320059002A90D48FEF718F90C
:103150004FF4806002900020039002A90848FEF717
:103160000FF92520FEF7FFFA032211462520FEF76E
:103170000AFB06B010BD00000038014000100240FC
:103180000008014010B5034693F83A0020282FD1DB
:1031900001B10AB9012010BD00BF93F83800012821
:1031A00001D10220F7E7012083F8380000BF9962BF
:1031B0009A85DA850020D863222083F83A0000BF80
:1031C000002083F8380000BF1868C06840F48070A1
:1031D0001C68E0601868406940F001001C6860618C
:1031E0001868C06840F020001C68E0600020D2E74A
:1031F0000220D0E71D4A0168914236D11C49098856
:1032000001F4004189BB1A49098801F4804171B178
:10321000184909780A2903D00021154A118024E0B1
:103220001349098841F40041114A11801DE01149F8
:1032300009780D2906D10E49098841F480410C4ACC
:10324000118012E00B490978094A1288C2F30D0275
:10325000094B995406490988491C054A11801146B1
:103260000988C72901DD002111807047003801401D
:103270006C0000206E000020D0170020704700BFB7
:10328000FEE7000010B500200A49086000F09AFD32
:1032900000200949C1F89C01022008F04BFD0120E3
:1032A00004490860052008F045FD00200249C1F8E6
:1032B000980110BD988121420080214200B585B05F
:1032C00000BF1948806940F0080017498861084626
:1032D000806900F00800009000BF00BF00BF0846F2
:1032E000806940F0080088610846806900F00800A5
:1032F000009000BF00BF4020019001200290039089
:103300000320049001A90948FEF73AF880200190B3
:1033100001A90648FEF734F801200549086005496F
:10332000C1F8980105B000BD00100240000C01403A
:103330009C8121420080214210B500200A4908608A
:1033400000F040FD01200949C1F89C01022008F06D
:10335000F1FC012004490860052008F0EBFC002086
:103360000249C1F8980110BD988121420080214294
:1033700070B50546002400F015FD002616E000207B
:103380000F490860022008F0D5FC01200D49C1F862
:1033900098016006040E0A487C38006808B1601C79
:1033A000C4B2012008F0C6FC701CC6B2082EE6DBD1
:1033B00015B9FFF7C1FF01E0FFF764FF204670BDBC
:1033C000988121420080214270B5044600F0FAFC49
:1033D000002014490860002520E004F08000002847
:1033E00004DD01200F49091D086003E000200D499C
:1033F000091D08606006040E022008F09BFC0120F5
:1034000008490860022008F095FC00200649C1F830
:103410009801022008F08EFC681CC5B2082DDCDB88
:1034200070BD0000988121420080214210B500F05B
:10343000C9FC0120094908600949C1F89801052023
:1034400008F078FC002005490860062008F072FCAE
:1034500000200349C1F8980110BD00009C81214261
:103460000080214210B500F0ADFC00200949086041
:103470000949C1F89C01012006490860062008F0AE
:1034800059FC01200449C1F89C01062008F052FCB7
:1034900010BD0000988121420080214210B5002417
:1034A00000F080FC01200E49086008F043FC012078
:1034B0000C49C1F8980108F03DFC07E0601CC4B25B
:1034C000FA2C03DDFFF7CEFF012010BD0448803841
:1034D00000680028F2D10249091F086000BFF4E724
:1034E0009C8121420080214272B6704762B67047CB
:1034F00000B585B000BF1748806940F00400154949
:1035000088610846806900F00400009000BF00BF99
:1035100000BF0846806940F0400088610846806925
:1035200000F04000009000BF00BF1C200190002070
:1035300002900120039001A90748FDF721FF012017
:1035400001900220039001A90448FDF719FF05B07E
:1035500000BD0000001002400018014000080140BA
:1035600070B506460F484088401E83B20D4800885B
:10357000401E82B20021084600F06DF900240CE0E4
:10358000002504E0304600F0A7FB681C85B2054822
:103590004088A842F6DC601C84B202480088A04241
:1035A000EEDC70BD140000202DE9F84F06460F46F2
:1035B00090469946DDF828B0A8EB0600401C1FFA9B
:1035C00080FAA9EB0700401C80B20090002415E0AF
:1035D00000250FE03A1991B2721990B24B4642465B
:1035E00000F039F904FB0A513BF8110000F074FBBC
:1035F000681C85B25545EDDB601C84B2009884429E
:10360000E6DBBDE8F88F000010B50446134884716E
:103610005CB90821362000F04FFB4FF4F0700F49E1
:1036200048804FF4A070088016E02821362000F072
:1036300043FBB62000F03AFB002000F047FB0220DD
:1036400000F044FB3B2000F041FB4FF4A070034925
:1036500048804FF4F070088010BD00001400002076
:1036600070B504460D4616462B462246294620468E
:1036700000F0F1F8304600F02FFB70BD2DE9FF4F50
:1036800084B081468A460020039002900698A0EB01
:1036900009050798A0EB0A06CDF80490CDF800A024
:1036A000002D01DD012705E00DB9002702E04FF0F4
:1036B000FF376D42002E02DD4FF0010806E016B91B
:1036C0004FF0000802E04FF0FF387642B54201DDCE
:1036D0002C4600E034464FF0000B21E0009A91B2F6
:1036E000019A90B200F022F80398284403900298BF
:1036F000304402900398A04205DD0398001B03901C
:103700000198384401900298A04205DD0298001B00
:1037100002900098404400900BF101001FFA80FBDA
:10372000601C8345DADD08B0BDE8F08F30B5044693
:103730000D462B4622462946204600F08CF80248CA
:10374000008800F0C9FA30BD100000202DE9F043D8
:1037500006460F469046002445460320A0EB480944
:103760003CE07A1B91B2321990B2FFF7DFFF3A1BAF
:1037700091B2721990B2FFF7D9FF3A1991B272194A
:1037800090B2FFF7D3FF7A1991B2321990B2FFF7D6
:10379000CDFF7A1991B2321B90B2FFF7C7FF3A19E9
:1037A00091B2721B90B2FFF7C1FF7A1B91B2321B2C
:1037B00090B2FFF7BBFF3A1B91B2721B90B2FFF7BA
:1037C000B5FF641CB9F1000F03DAA000801D81442D
:1037D00004E0601B80000A3081446D1EAC42C0DDF5
:1037E000BDE8F0832DE9F04304460D4616461F461A
:1037F000DDF81C80B44201DCBD4201DDBDE8F08390
:103800003B4632462946204600F025F8301B401C36
:1038100084B2781B401C85B20BE0A94602E040460A
:1038200000F05AFAB9F10000A9F101011FFA81F97B
:10383000F5D1201EA4F101018CB2EED100BFDDE76D
:1038400010B50246012000E050430B1EA1F1010417
:10385000E1B2F9D110BD70B504460D462A2000F042
:1038600025FA2646E11704EB1161C1F30F2000F0A1
:103870002DFAE11704EB11610912A4EB012188B2C2
:1038800000F024FA1646D11702EB1161C1F30F20A4
:1038900000F01CFA1646D11702EB11610912A2EBD7
:1038A000012188B200F012FA2B2000F0FFF92E4619
:1038B000E91705EB1161C1F30F2000F007FAE917D2
:1038C00005EB11610912A5EB012188B200F0FEF9A8
:1038D0001E46D91703EB1161C1F30F2000F0F6F972
:1038E0001E46D91703EB11610912A3EB012188B21F
:1038F00000F0ECF92C2000F0D9F970BD2DE9F84F5B
:1039000080460E4617461C46B3462046E31704EB96
:103910005373DB1021464FEAE47C04EB5C7C4FEAF6
:10392000EC0CA4EBCC0CBCF1000F02D04FF0010C5E
:1039300001E04FF0000C6344224604EBD27C4FEAD6
:103940006C0C03FB0CF3DBB20093A7F12000C7B2B1
:10395000002556E00C2C07D107EB47002B4901EB63
:10396000800010F8059013E0102C05D1284800EBDA
:10397000071010F805900BE0182C07D107EBC700D3
:10398000244901EB800010F8059001E0BDE8F88FB4
:103990004FF0000A2FE009F0800030B11E48028885
:1039A00031464046FFF75CFE07E00A9828B91B48FD
:1039B000028831464046FFF753FE4FEA49604FEA1E
:1039C0001069701C86B216484088B04200DCDDE702
:1039D000A6EB0B00A0420AD15E4608F101001FFAD7
:1039E00080F80F480088404500DCCFE706E00AF188
:1039F000010000F0FF0ABAF1080FCCDB00BF681C21
:103A0000C5B200988542A5DB00BFBFE7EE91030871
:103A100062960308529C0308100000201200002048
:103A2000140000202DE9FE4F07460E4691469A46A7
:103A3000DDE90D4B0C9DB8460296002001904CE04C
:103A4000019870BB2878802802DD0120019044E0B5
:103A500004EBD47108EB0902A2EB6101B94202DA6E
:103A6000301986B2474602985044001BB04200DA33
:103A700036E028780D2804D1301986B247466D1CEF
:103A800007E0CDF800B02A78234631463846FFF7E4
:103A900035FF6D1C204604EBD07107EB61018FB23E
:103AA0001BE0FFE70020019008EB0900001BB84273
:103AB00002DA301986B2474602985044001BB042E1
:103AC00000DA0DE023462A4631463846CDF800B0EC
:103AD00000F086F8AD1C381987B228780028AFD1DD
:103AE00000BFBDE8FE8F2DE9FF4F81B0074691462C
:103AF0001E460E9D4FF0000A002439E0301B401E88
:103B0000C1B20A20FFF79CFEB9FBF0F00A21B0FB1E
:103B1000F1F201FB1208BAF1000F16D1701EA0429B
:103B200013DDB8F1000F0ED10020AB4605EBDB71C1
:103B3000491001FB0471009088B22B4620220299A3
:103B4000FFF7DCFE12E04FF0010A0020AB4605EB68
:103B5000DB71491001FB0471009088B208F130015B
:103B6000CAB22B460299FFF7C9FE00BF601CC4B25F
:103B7000B442C3DB05B0BDE8F08F2DE9F847044639
:103B80000D4690469946DDE9096704F0FF0A08EB07
:103B900004001FFA80F809EB05001FFA80F916E00F
:103BA000444502DB5446A81985B24D4500DB14E0BC
:103BB000002000903A78334629462046FFF79EFEC3
:103BC000304606EBD07104EB61018CB27F1C387873
:103BD0007E2802DC38782028E2DA00BFBDE8F887CA
:103BE0002DE9FF4FA1B007460D461C46AA462046C8
:103BF000E21704EB5272D2102146E31704EB537321
:103C0000DB10A4EBC3030BB1012300E000231A4433
:103C1000624302F0FF0B0C2C08D0102C06D0182C9D
:103C200004D0202C02D025B0BDE8F08F224601A997
:103C30002398FDF745FA00262FE001A810F806802A
:103C40004FF0000923E008F0800030B115480288E9
:103C500029463846FFF704FD07E02E9828B9124898
:103C6000028829463846FFF7FBFC4FEA48604FEAD6
:103C70001068681C85B2A5EB0A00A04203D1554626
:103C8000781C87B206E009F1010000F0FF09B9F1E4
:103C9000080FD8DB00BF701CC6B25E45CDDB00BF8D
:103CA000C1E7000010000020120000200149088038
:103CB00070470000FE07006C00B503460A46184630
:103CC000FFF7F4FF104600F001F800BD014908803D
:103CD000704700000008006C0112024A1180C1B256
:103CE000118070470008006C00B585B000BF1B480C
:103CF000806940F00800194988610846806900F031
:103D00000800009000BF00BF00BF0846806940F077
:103D1000400088610846806900F04000009000BFC4
:103D200000BF202001900120029003900320049006
:103D300001A90B48FDF724FB2020019001A90948A7
:103D4000FDF71EFB012220210548FDF7B9FC0122E9
:103D500020210448FDF7B4FC05B000BD001002406E
:103D6000000C01400018014000BF2BF0CDFE01E027
:103D70002CF0E0FDFCE700BFFEE7704708B50849FE
:103D80000968C9084FF47A72B1FBF2F1414300911E
:103D900000BF00BF00994A1E00920029F9D108BD5A
:103DA000000000201FB5802000900020019001201D
:103DB00002900320039069460148FDF7E1FA1FBD18
:103DC000000C01401FB5802000900120019002905E
:103DD0000320039069460248FDF7D2FA1FBD000098
:103DE000000C014010B50246002308685062486884
:103DF0009062D1E9020420430C6920434C692043BE
:103E00000343D06A20F0F7001843D062002010BDB1
:103E100001460869C0B270470146086800F0030017
:103E20007047024602F114004318186870470FB437
:103E300010B504460021DDE903021043059A104342
:103E4000069A1043079A1043089A1043014360688A
:103E500047F6FF62904308436060002010BC5DF8A5
:103E600014FB10B50446032020600220FDF774FA0D
:103E7000002010BD0146D1F88000704710B5024601
:103E8000002308689060D1E901042043CC682043F6
:103E90000C6920430343D0686FF30B001843D060D4
:103EA000002010BD02460868C2F88000002070475C
:103EB00070B586B005460C4601943720029040202C
:103EC0000390002004904FF48060059001A92846DB
:103ED000FFF7D4FF41F288323721284600F0DCF9A1
:103EE0000646304606B070BD70B586B005460C4635
:103EF0000B4820430190292002904020039000208D
:103F000004904FF48060059001A92846FFF7B6FFA2
:103F1000284600F0C9FA0646304606B070BD0000DB
:103F20000000108070B586B005460C460194102044
:103F3000029040200390002004904FF48060059090
:103F400001A92846FFF79AFF41F28832102128463E
:103F500000F0A2F90646304606B070BD70B586B0D6
:103F600005460C4601940620029040200390002054
:103F700004904FF48060059001A92846FFF77EFF6A
:103F800041F288320621284600F086F9064630467E
:103F900006B070BD30B585B0044600200090019099
:103FA000029003904FF48060049069462046FFF72A
:103FB00065FF204600F050F90546284605B030BDA3
:103FC00030B585B004464FF4D570009008200190BC
:103FD00040200290002003904FF4806004906946D6
:103FE0002046FFF74BFF204600F0E6FA054628463C
:103FF00005B030BD70B586B005460C460194122060
:10400000029040200390002004904FF480600590BF
:1040100001A92846FFF732FF41F2883212212846D3
:1040200000F03AF90646304606B070BD70B586B06D
:1040300005460C4601941120029040200390002078
:1040400004904FF48060059001A92846FFF716FF01
:1040500041F288321121284600F01EF9064630460A
:1040600006B070BDF0B585B0064614461D460094F6
:104070000720019040200290002003904FF48060C0
:10408000049069463046FFF7F9FE41F28832072175
:10409000304600F001F90746384605B0F0BD30B5AE
:1040A00085B004460020009002200190C0200290BC
:1040B000002003904FF48060049069462046FFF78B
:1040C000DDFE204600F0BEF90546284605B030BDAD
:1040D00070B586B005460C46019409200290C020B8
:1040E0000390002004904FF48060059001A92846B9
:1040F000FFF7C4FE284600F0A5F90646304606B094
:1041000070BD30B585B0044600200090332001908A
:1041100040200290002003904FF480600490694694
:104120002046FFF7ABFE41F288323321204600F0F3
:10413000B3F80546284605B030BD70B586B00546D3
:104140000C4601940D200290402003900020049022
:104150004FF48060059001A92846FFF78FFE41F2D9
:1041600088320D21284600F097F80646304606B002
:1041700070BD70B586B005460C4600200190032046
:10418000029040200390002004904FF4806005903E
:1041900001A92846FFF772FE22460321284600F0B7
:1041A000AFF90646304606B070BD000030B585B0A8
:1041B0000446002000900C20019040200290002036
:1041C00003904FF48060049069462046FFF756FE46
:1041D000044A0C21204600F05FF80546284605B049
:1041E00030BD000000E1F50570B586B005460C460F
:1041F00001941920029040200390002004904FF475
:104200008060059001A92846FFF738FE41F2883208
:104210001921284600F040F80646304606B070BD29
:1042200070B586B005460C460194182002904020D7
:104230000390002004904FF48060059001A9284667
:10424000FFF71CFE41F288321821284600F024F8BE
:104250000646304606B070BD01460E480068C008EC
:104260004FF47A73B0FBF3F041F2883300FB03F2B2
:1042700000BF101EA2F1010202D14FF000407047B2
:10428000486B00F080000028F3D0C5208863002030
:10429000F5E70000000000202DE9F04305460F4639
:1042A000904666480068C0084FF47A71B0FBF1F0A0
:1042B00000FB08F900BFB9F10000A9F1010903D121
:1042C0004FF00040BDE8F0836E6B06F0450000281B
:1042D000F1D006F400600028EDD1686B00F0040016
:1042E00010B10420A863EDE7686B00F0010010B185
:1042F0000120A863E6E7C520A8632846FFF788FDEC
:10430000B84201D00120DDE700212846FFF789FDF2
:1043100004464B48204008B90020D3E704F0004091
:10432000B0F1004F02D14FF00070CBE704F08040B5
:10433000B0F1804F01D14020C4E704F00050B0F14B
:10434000005F01D18020BDE704F08050B0F1805FB4
:1043500002D14FF48070B5E704F00060B0F1006F57
:1043600002D14FF40070ADE704F08060B0F1806FCF
:1043700002D14FF48060A5E704F08070B0F1807F37
:1043800002D14FF400609DE704F40000B0F5000F87
:1043900002D14FF4805095E704F48000B0F5800F0F
:1043A00002D14FF400508DE704F40010B0F5001F67
:1043B00002D14FF4804085E704F48010B0F5801FEF
:1043C00002D14FF400407DE704F48020B0F5802F47
:1043D00002D14FF4003075E704F40030B0F5003F2F
:1043E00002D14FF480206DE704F48030B0F5803FB7
:1043F00002D14FF4002065E704F40040B0F5004F0F
:1044000002D14FF480105DE704F48040B0F5804F96
:1044100002D14FF4001055E704F40050B0F5005FEE
:1044200002D14FF480004DE704F00800082801D1C4
:10443000000547E74FF4803044E70000000000200B
:1044400008E0FFFD10B5014616480068C0084FF4AB
:104450007A74B0FBF4F041F2883400FB04F300BF3F
:10446000181EA3F1010302D14FF0004010BD4A6BAA
:1044700002F045000028F3D002F400600028EFD1DC
:10448000486B00F0040010B104208863EEE7486B2D
:1044900000F0010010B101208863E7E7C5208863C0
:1044A0000020E3E70000002010B501461348006833
:1044B000C0084FF47A74B0FBF4F041F2883400FB8A
:1044C00004F300BF181EA3F1010302D14FF0004016
:1044D00010BD4A6B02F045000028F3D002F40060E2
:1044E0000028EFD1486B00F0040010B1042088636D
:1044F000EEE7C52088630020EAE700000000002006
:104500002DE9F04304460F4690462A480068C0084B
:104510004FF47A71B0FBF1F041F2883100FB01F900
:1045200000BFB9F10000A9F1010903D14FF000402B
:10453000BDE8F083666B06F045000028F1D006F474
:1045400000600028EDD1606B00F0040010B1042081
:10455000A063EDE7606B00F0010010B10120A063E3
:10456000E6E72046FFF754FCB84201D00120DFE720
:10457000C520A06300212046FFF753FC054605F443
:10458000604020B9280CA8F800000020D0E705F40E
:104590008040B0F5804F02D14FF40050C8E705F4D9
:1045A0000040B0F5004F02D14FF48050C0E74FF407
:1045B0008030BDE70000002010B5014618480068B3
:1045C000C0084FF47A74B0FBF4F041F2883400FB79
:1045D00004F300BF181EA3F1010302D14FF0004005
:1045E00010BD4A6B02F045000028F3D002F40060D1
:1045F0000028EFD1486B00F0040010B1042088635C
:10460000EEE7486B00F0010010B101208863E7E796
:10461000486B00F0400008B1402088630020DFE7CD
:10462000000000202DE9F04389B004460F46FDF755
:104630004DF881464FF000080020019002903E4660
:1046400008212068FFF76EFC05461DB1284609B019
:10465000BDE8F0835022125B11042068FFF728FCAC
:1046600005460DB12846F2E74FF0FF3003900820D1
:104670000490302005900220069000200790012031
:10468000089003A92068FFF7ADFB2068FFF739FD0C
:1046900005460DB12846DAE715E02068406B00F4C6
:1046A000001038B12068FFF7E5FB01A941F82800A8
:1046B00008F10108FDF70AF8A0EB0900401C10B949
:1046C0004FF00040C3E72068406B40F22A410840A9
:1046D0000028E2D02068406B00F0080018B10820E4
:1046E00021688863B3E72068406B00F0020018B1CE
:1046F000022021688863AAE72068406B00F0200050
:1047000018B1202021688863A1E740F23A5021685F
:10471000886302980006029901F47F4140EA012073
:10472000029901F47F0140EA1120029940EA1160E8
:104730003060361D01980006019901F47F4140EA7E
:104740000120019901F47F0140EA1120019940EA1A
:104750001160306000207AE710B50448FDF719FDBC
:10476000042801D0012010BD0020FCE73C130020EC
:1047700010B51148114908600020486000210F4819
:104780008160C1600161416104218161FDF713FD18
:1047900004460CB1012010BD09490848FDF7E6FCAC
:1047A0004FF400610548FDF7A9FB04460CB1022057
:1047B000F1E70020EFE70000008001403C130020FB
:1047C000C013002030B58FB004460120039020684C
:1047D000FFF722FB18B94FF080600FB030BD606C5E
:1047E00003281BD02068FFF75AFC05460DB1284668
:1047F000F3E700212068FFF714FB606704212068BD
:10480000FFF70FFBA06708212068FFF70AFBE067AE
:104810000C212068FFF705FB80210851606C0328FC
:1048200007D003A92068FFF7A4FC05460DB1284670
:10483000D3E7606C032820D0BDF80C10216550220E
:10484000125B11042068FFF743FC05460DB12846B2
:10485000C3E700212068FFF7E4FA606604212068BE
:10486000FFF7DFFAA06608212068FFF7DAFAE066B2
:104870000C212068FFF7D5FA206704212068FFF794
:10488000D0FA010DE16404A92046FDF78BFB10B1BD
:104890004FF08050A1E75020005B01040A4600233E
:1048A0002068FFF7DFFB05460DB1284695E7D4E900
:1048B0000412A069CDE90012029094E80F00FFF7FE
:1048C000B6FA002089E70000F8B504460020009001
:1048D000002600272068FFF75DFB05460DB128463E
:1048E000F8BD2068FFF76CFB054645B10021A164C7
:1048F0002068FFF74FFB05461DB12846F0E7012170
:10490000A164A06C012808D100212068FFF7D0FA2B
:10491000054615B14FF08050E2E71DE00021206808
:10492000FFF7C6FA05460DB12846D9E718492068B1
:10493000FFF7DAFA054615B14FF08050D0E70021B5
:104940002068FFF76EFA0646012080EAD67080F0F4
:1049500001070098401C00904FF6FF7100988842B4
:1049600001D2002FDAD04FF6FF710098884202D3AF
:104970004FF08070B4E706F08040B0F1804F02D174
:104980000120606401E0002060640020A8E70000CE
:10499000000010C12DE9F84605460C4616464FF0BA
:1049A0000009DFF83CA02746FEF79EFD504633463F
:1049B0003A46294600900B48FDF7B2FC814606E0D6
:1049C000BAF10000AAF1010A01D14FF00109FFF785
:1049D000C3FE0028F4D1FEF789FD4846BDE8F886FD
:1049E00000E1F5053C13002070B504460D4615B9ED
:1049F0004FF0006070BD5022125B11042068FFF779
:104A00009CFB06460EB13046F4E700212068FFF714
:104A100008FA28600020EDE77CB5044600200090ED
:104A2000019000212068FFF7FCF900F00070B0F160
:104A3000007F02D14FF400607CBD69462046FFF73D
:104A4000F1FD05460DB12846F6E7019800F48030E7
:104A500098B15022125B11042068FFF729FA05462D
:104A60000DB12846E8E700212068FFF777FA0546F0
:104A70000DB12846E0E70020DEE74FF08060DBE77D
:104A80007CB5044600200090019000212068FFF7CB
:104A9000C8F900F00070B0F1007F02D14FF400605F
:104AA0007CBD69462046FFF7BDFD05460DB1284691
:104AB000F6E7019800F4802098B15022125B1104AF
:104AC0002068FFF7F5F905460DB12846E8E7022111
:104AD0002068FFF743FA05460DB12846E0E70020BD
:104AE000DEE74FF08060DBE72DE9F84605460C462F
:104AF00016464FF00009DFF83CA02746FEF7F4FC0D
:104B0000504633463A46294600900B48FDF728FDAB
:104B1000814606E0BAF10000AAF1010A01D14FF086
:104B20000109FFF719FE0028F4D1FEF7DFFC484623
:104B3000BDE8F88600E1F5053C13002010B51348E8
:104B4000134908604FF4827048600021104881606A
:104B5000C160022101610121416149028161382165
:104B6000C16100210162416281620721C162FDF7DA
:104B7000F3FD07480068006840F0400004490968F8
:104B80000860FF2000F006F810BD0000003800406B
:104B90006816002001B582B04FF47A70012301AA93
:104BA00002A900900248FDF757FE9DF804000EBDD3
:104BB0006816002010490968096821F040010E4A72
:104BC000126811600C49096809684FF6C7721140F4
:104BD000094A126811600849096809680143064AD0
:104BE0001268116004490968096841F04001024AED
:104BF000126811607047000068160020F8B504467E
:104C00000D4616462B46002280212046009600F0D5
:104C10000CF828B1606D40F0200060650320F8BDFD
:104C20000020FCE70146012070472DE9F0410446D1
:104C30000E4617461D46DDF818803EE0681CD8B3C6
:104C4000FCF744FDA0EB0800A84200D2A5BB2068F9
:104C5000406820F0E000216848606068B0F5827F1D
:104C60000DD1A068B0F5004F03D0A068B0F5806FFB
:104C700005D12068006820F0400021680860A06A23
:104C8000B0F5005F0DD100BF2068006820F400502F
:104C9000216808602068006840F4005021680860BE
:104CA00000BF012084F8510000BF002084F85000AC
:104CB00000BF0320BDE8F081FFE720688068304036
:104CC000B04201D1012000E00020B842B6D100205E
:104CD000F0E710B534F0A6F8012801D034F058F808
:104CE00010BD000010B504460420FDF7B9FF0148CF
:104CF000046010BD6800002030B58FB00546002468
:104D000001200590000406900020079002200C90DE
:104D1000C1030D910E9505A8FCF7BEFE04460CB12B
:104D200000BFFEE70F2000900220019000200290BB
:104D30004FF4806003900020049002216846FCF745
:104D400075FD04460CB100BFFEE70FB030BD00009A
:104D50001148006840F001000F49086008464068AB
:104D60000E4908400C494860084600680C49084054
:104D7000094908600846006820F480200860084659
:104D8000406820F4FE0048604FF41F008860C803AC
:104D90000449086070470000001002400000FFF85E
:104DA000FFFFF6FE08ED00E000B593B000BF264817
:104DB000806940F00800244988610846806900F055
:104DC0000800009000BF00BF01200F9010901190CC
:104DD000032012900FA91D48FCF7D2FA4FF0204093
:104DE0001B4908601B48486006208860002118485D
:104DF000C16001611021416100218161C161416295
:104E00004FF4805181620021C1624FF480410163FF
:104E10000021416381630F200890002009903C200D
:104E20000A9000200E90049009200190002002902A
:104E3000082003900020079001AA08A90448FDF764
:104E400082FE13B000BD000000100240000C0140C3
:104E500008170020040100A010B5FFF7A5FF3220BD
:104E600006F05BFFDA20FEF721FF784800887849DA
:104E70008880764800884FF6FF7101EA0020744967
:104E80008880DB20FEF712FF714880886F4909880F
:104E900008436F498880084680886C490988084320
:104EA0006B498880084681886AA001F0E3FAE02017
:104EB000FEF7FCFE0020FEF709FF1320FEF706FFB9
:104EC0001820FEF703FF0420FEF700FF0F20FEF777
:104ED000FDFE0620FEF7FAFE3A20FEF7F7FE56200A
:104EE000FEF7F4FE4D20FEF7F1FE0320FEF7EEFE86
:104EF0000A20FEF7EBFE0620FEF7E8FE3020FEF764
:104F0000E5FE3E20FEF7E2FE0F20FEF7DFFEE12089
:104F1000FEF7CCFE0020FEF7D9FE1320FEF7D6FEEA
:104F20001820FEF7D3FE0120FEF7D0FE1120FEF779
:104F3000CDFE0620FEF7CAFE3820FEF7C7FE34205D
:104F4000FEF7C4FE4D20FEF7C1FE0620FEF7BEFEB2
:104F50000D20FEF7BBFE0B20FEF7B8FE3120FEF75A
:104F6000B5FE3720FEF7B2FE0F20FEF7AFFEC020E1
:104F7000FEF79CFE1820FEF7A9FE1720FEF7A6FEFE
:104F8000C120FEF793FE4120FEF7A0FEC520FEF7EC
:104F90008DFE0020FEF79AFE1A20FEF797FE802075
:104FA000FEF794FE3620FEF781FE0820FEF78EFE07
:104FB0003A20FEF77BFE5520FEF788FEB020FEF774
:104FC00075FE0020FEF782FEB120FEF76FFEA020E6
:104FD000FEF77CFEB420FEF769FE0220FEF776FEA7
:104FE000B620FEF763FE0020FEF770FE2220FEF7DB
:104FF0006DFE3B20FEF76AFEE920FEF757FE00201B
:10500000FEF764FEF720FEF751FEA920FEF75EFED4
:105010005120FEF75BFE2C20FEF758FE8220FEF7A3
:1050200055FE1120FEF742FE782006F076FE29207C
:10503000FEF73CFE2C20FEF739FE0020FEF7E4FAD6
:105040004FF6FF70FEF78CFA10BD00000008006CF0
:1050500014000020204C43442049443A25780D0A8E
:105060000000000010B50248FDF77CFE10BD0000F6
:105070005017002070B505460C46074807490860E0
:105080000846446000218160C5600161FDF718FE9B
:105090000248FDF751FE70BD00100040501700207F
:1050A00010B50268204B98420ED0204B98420BD08E
:1050B000B0F1804F08D01E4B984205D01D4B98424E
:1050C00002D01D4B984203D122F070024B681A4364
:1050D000154B98420ED0154B98420BD0B0F1804F33
:1050E00008D0134B984205D0124B984202D0124B75
:1050F000984203D122F44072CB681A4322F0800315
:105100004C6943EA040202608B68C3620B688362E5
:10511000054B984202D0054B984201D10B690363BD
:105120000123436110BD0000002C01400034014008
:105130000004004000080040000C00402DE9FC5F26
:1051400004460D4617461E46DDE90EABDDE90C8927
:105150004FF478405749088057A01021CDE900103E
:10516000564843880288A0212820FEF706FD54A057
:105170001021CDE90010514843880288A0217820F1
:10518000FEF7FBFC4FA01021CDE900104B484388EF
:105190000288B4212820FEF7F0FC4BA01021CDE9B5
:1051A0000010464843880288B4217820FEF7E5FCC9
:1051B00046A01021CDE90010404843880288C8214C
:1051C0002820FEF7DAFC42A01021CDE900103B4870
:1051D00043880288C8217820FEF7CFFC3DA010212B
:1051E000CDE90010354843880288DC212820FEF7ED
:1051F000C4FC39A01021CDE9001030484388028852
:10520000DC217820FEF7B9FC34A01021CDE9001094
:105210002A4843880288F0212820FEF7AEFC10209F
:1052200004232246A02100904020FEF75CFC1020C1
:1052300004232A46A02100909020FEF754FC102061
:1052400004233A46B42100904020FEF74CFC102085
:1052500004233246B42100909020FEF744FC102035
:1052600004234246C82100904020FEF73CFC102059
:1052700004234A46C82100909020FEF734FC1020F9
:1052800004235246DC2100904020FEF72CFC102025
:1052900004235A46DC2100909020FEF724FC1020C5
:1052A00003230090F0216020109AFEF71CFCBDE85B
:1052B000FC9F00001000002078313A00140000200C
:1052C00079313A0078323A0079323A0078333A004C
:1052D00079333A0078343A0079343A0066616320D1
:1052E00069733A0000B597B0002012900B901290AD
:1052F0001F20FE4908804FF6FF70FD490880FEF729
:105300002FF94FF47840F94908804FF6FF70FEF707
:1053100027F90020F5490880F64800681021642329
:10532000A022CDE9001028210846FEF726FC4FF404
:1053300078421421084600F003FC0020EE498886DC
:105340008863D0E3EC4840680A9001200A998847B6
:10535000E94890F8340000F0C00040287AD10020DD
:105360000B90E548808E20F04000E349888608468F
:10537000818913AA129822F82010DF48018C129814
:1053800002EB800041801298401CC0B2129012982B
:10539000012806D0022815D0032829D0042810D1CE
:1053A00041E04FF6FF721421084600F0C9FBD348D4
:1053B0000088143880B24FF4784214210A9000F02B
:1053C000BFFB80E3CD480088143880B24FF6FF72EF
:1053D00014210A9000F0B4FBC8484088143880B209
:1053E0004FF4784201460A90142000F0A9FB6AE3CA
:1053F000C2484088143880B24FF6FF7201460A90C6
:10540000142000F09DFBBD484088143880B20A90FB
:10541000BA480088143880B24FF4784209900A994B
:1054200000F08EFB4FE3BDF84C00BDF85010401A61
:105430000A90002801DB0A9801E00A9840420F9088
:10544000BDF84E1013A8C088081A0A90002802DB85
:105450000A9802E038E30A9840420E900F984043C1
:105460000F900E9840430E90DDE90E100844059011
:10547000FBF79DF8CDE906012FF0E6F9CDE908012B
:10548000FBF7CFF880B21190BDF85400BDF858106A
:10549000401A0A90002801DB0A9801E00A9840426D
:1054A0000F9013A84189C089081A0A90002801DBCF
:1054B0000A9801E00A9840420E900F9840430F90DE
:1054C0000E9840430E90DDE90E1008440590FBF75E
:1054D0006EF8CDE906012FF0B7F9CDE90801FBF729
:1054E000A0F880B210901098FBF75CF80990119822
:1054F000FBF758F808900999FAF79BFF0A90FBF719
:10550000A9F8CDE90C014FF066327D4BDDE90C01C5
:10551000FBF7B4F80AD37B4A7B4BDDE90C01FBF7C0
:10552000C5F803D3119808B11098E8BB0020129079
:1055300072484088143880B20A9070480088143845
:1055400080B24FF6FF7209900A9900F0F9FA4FF411
:1055500078421421084600F0F3FA00226B4BDDE993
:105560000C01FAF7A4FFCDE90801FBF75AF880B265
:1055700013A90A90C989BDF8582013AB5B89CDE9FE
:105580000132CDE90310BDF85400009013A8C08883
:105590000990BDF850000890BDF84E000790BDF886
:1055A0004C00069007A900E003E00EC9FFF7C6FD16
:1055B00099E2BDF84C00BDF85410401A0A9000283A
:1055C00001DB0A9801E00A9840420F90BDF84E10A6
:1055D00013A84089081A0A90002801DB0A9801E004
:1055E0000A9840420E900F9840430F900E98404307
:1055F0000E90DDE90E1008440590FAF7D8FFCDE9CA
:1056000006012FF021F9CDE90801FBF70AF880B275
:105610001190BDF85000BDF85810401A0A900028AB
:1056200001DB0A9801E00A9840420F9013A8C18854
:10563000C089081A0A90002801DB0A9801E00A983C
:1056400040420E900F9840430F900E9840430E90AA
:10565000DDE90E1008440590FAF7A9FFCDE906012F
:105660002FF0F2F8CDE90801FAF7DBFF80B21090D5
:105670001098FAF797FF09901198FAF793FF08909E
:105680000999FAF7D6FE0A90FAF7E4FFCDE90C0182
:105690004FF066321A4BDDE90C01FAF7EFFF06D343
:1056A000184A194BDDE90C01FBF700F854D2002031
:1056B000129012484088143880B20A900F4800882F
:1056C000143880B24FF6FF7209900A9900F038FA48
:1056D0004FF478421421084600F032FA00220B4BB6
:1056E000DDE90C01FAF7E3FE12E0000010000020F3
:1056F0001200002008DB03081C000020140000201A
:105700006666EE3FCDCCCCCCCCCCF03F000059400F
:10571000CDE90801FAF785FF80B213A90A90C9897B
:10572000BDF8582013AB5B89CDE90132CDE90310F8
:10573000BDF85400009013A8C0880990BDF850002F
:105740000890BDF84E000790BDF84C00069007A9E0
:105750000EC9FFF7F3FCC6E1BDF85000BDF85410C8
:10576000401A0A90002801DB0A9801E00A9840429A
:105770000F9013A8C1884089081A0A90002801DBFD
:105780000A9801E00A9840420E900F9840430F900B
:105790000E9840430E90DDE90E1008440590FAF78C
:1057A00006FFCDE906012FF04FF8CDE90801FAF721
:1057B00038FF80B21190BDF84C00BDF85810401A67
:1057C0000A90002801DB0A9801E00A9840420F90F5
:1057D000BDF84E1013A8C089081A0A90002801DBF2
:1057E0000A9801E00A9840420E900F9840430F90AB
:1057F0000E9840430E90DDE90E1008440590FAF72C
:10580000D6FECDE906012FF01FF8CDE90801FAF721
:1058100008FF80B210901098FAF7C4FE0990119812
:10582000FAF7C0FE08900999FAF703FE0A90FAF712
:1058300011FFCDE90C014FF06632AD4BDDE90C01F3
:10584000FAF71CFF06D3AB4AAB4BDDE90C01FAF7C4
:105850002DFF40D200201290A8484088143880B212
:105860000A90A6480088143880B24FF6FF7209905B
:105870000A9900F065F94FF478421421084600F0C7
:105880005FF900229E4BDDE90C01FAF710FECDE92D
:105890000801FAF7C6FE80B213A90A90C989BDF8BB
:1058A000582013AB5B89CDE90132CDE90310BDF877
:1058B0005400009013A8C0880990BDF850000890CB
:1058C000BDF84E000790BDF84C00069007A90EC920
:1058D000FFF734FC07E1BDF85000BDF84C10401A4A
:1058E0000890FAF756FE0A908448008828380890F5
:1058F000FAF74FFE09900A99FAF79BFD81498863F0
:10590000BDF85000BDF84C1008440590FAF741FE70
:1059100006907C48806B014605900698FAF757FD83
:105920000890764800880690FAF73CFE07900899A0
:10593000FAF747FD4FF080410990FAF77AFD0A9097
:10594000FAF742FE00B26F49A1F8400013A840895F
:10595000BDF84E10401A0890FAF71BFE0A906748EF
:10596000408828380890FAF714FE09900A99FAF747
:1059700060FD6449C86313A84089BDF84E1008440F
:105980000590FAF706FE06905E48C06B014605904A
:105990000698FAF71CFD0890584840880690FAF7D8
:1059A00001FE07900899FAF70CFD4FF0804109902D
:1059B000FAF73FFD0A90FAF707FE00B25149A1F845
:1059C00042000846806B0890FAF7FEFD0990002817
:1059D00001DB099801E00998404202280DDC4948A2
:1059E000C06B0890FAF7F0FD0A90002801DB0A98D6
:1059F00001E00A984042022842DD002012903F4810
:105A00004088143880B20A903C480088143880B22C
:105A10004FF6FF7209900A9900F092F84FF478421D
:105A20001421084600F08CF837A01021CDE90010B1
:105A3000324840880A9031480088099002461A216D
:105A400028200A9BFEF799F82E4890F8440008B9E0
:105A5000012000E000202B4981F84400084690F81E
:105A6000440030B190202D490870D0202C49087096
:105A700005E0D0202949087090202949087032E0BB
:105A80001F20284908804FF6FF70FDF769FD26A00A
:105A90001021CDE90010194840880A901748008865
:105AA000099002466E2123200A9BFEF766F84FF408
:105AB0007A7006F032F900F037FA4FF6FF70FDF712
:105AC0004FFD17B000BD00BF0A2006F026F90B9865
:105AD000401C80B20B900B98B0F57A7F02DD00F08D
